:400000000040002011000000010900000109000008B500F077FCC04608B51222334B1A6000F09CFF324800F0DBFE012000F0B6FF0C2000F0E5FE2F4A2F4B1A608022D205B3
:400040002E4B1A602E4A116802230B4313602D4A2D4B1A602D4A136808218B431360FA20C00000F047FFC0B2002802D0012000F097FC274800F034FFB8225201254B1A6028
:40008000254B264A1A602649264A1160264A1A6080214901254A1160254A1A6080214900244A1160244A1A600222244B1A6080221206234B1A604222224B1A600132224BAD
:4000C0001A60023A214B1A60013A214B1A600820204900F0DBFE082000F0CCFE8022D205064B1A601122014B1A6008BD30001040001BB7000600008004010B400C020B4084
:4001000078002E402D3E00007C002E406CF02E40DC050000080301400000014042FF0080005F09000C03014043FF00800403014041FF00800003014040FF008000010B40BA
:4001400008010B402C0101401C0101400801014004010140B510000010B572B60022394B1A60002410E0384863001A195200821891881B195B001A5AC318588800041043B9
:4001800000F03AFC0134E4B2012CECD92E49081C0C302C3100F006FC802252002B4B1A80FF3A2B4B1A702B4A2B4B1A602B4A2C4B1A602C4A2C4B1A6099231B042B4A136004
:4001C0002B4A13602B492C4A11602C4A13602C4A1360802212052B4B1A602B4B197802220A431A70294802783C218A4328390A430270197816220A431A70D223244A136094
:400200002449254A1160254A13601722244B1A60244A254B1A604022244B1A60C0225203234B1A60E122234B1A60234A234B1A60C0221201224B1A60FFF7EEFE00F0CCFBF6
:4002400010BDC0466CF02E400010010000600F4002600F409000FFFF000002403303030000010240080009000003024000500F4010500F4000000D0318500F4020500F40FA
:4002800030500F4034500F4000700F4001700F400000044030E0D800080004401800044000010440B6610000080104400002044008020440000304400610D9000803044087
:4002C0000C03044010B5064C2378002B07D1054B002B02D0044800E000BF0123237010BD2004002000000000F00F010008B5084B002B03D00748084900E000BF07480368EF
:40030000002B00D108BD064B002BFBD09847F9E700000000F00F010024040020C80000200000000008B500F047FF002805D100F0DBFF042000F088FF07E0002000F084FFF6
:40034000034800F09BF800F061FF00F03DFF08BD0413002008B562B6014800F069FB08BDC503000010B5FFF7F5FF084800F016FF62B6074C201C342100F0A6F9201C342118
:400380000E2200F007F801F0F1FAFCE7250300000413002070B584B0051C0C1C161C002000F028FF01A80681019584800021044A00230CF099FA012000F01CFF04B070BDFD
:4003C0009827002010B527281CD004D8012809D026280BD04AE0422843D04C281CD0282844D10BE0002000F065FB3FE0204B1B78042B3BD1002000F05DFB37E0002000F069
:4004000059FB33E01B4A1378507800021843FA2149000BF0BDF929E08B890E2B19D105E04A68D05C144AD054013300E00023332BF6DD002000F0D2FE0F4C201C342100F082
:400440000BFA201C34210E22FFF7A4FF012000F0C5FE084A13785078000218430BF012FD04E0054834210E22FFF794FF10BDC046922700209827002004130020F0B55F46F2
:4004800056464D464446F0B491B0031C8279C0790002024391461A7A587A000202439046987ADF7A3F020743187B5E7B36020643987BDD7B2D0205431A7C587C0002024334
:4004C00000929A7CD87C0002024301921A7D587D0002141C044302949A7DD87D0002141C0443A2461A7E587E0002141C0443A346987EDC7E240220430490197F5A7F1202FC
:4005000011430391997FDA7F12020C1C144305942022995C01329A5C1202114306912222995C01329A5C12020C1C144307942422995C01329A5C1202114308912622995CA5
:4005400001329A5C12020C1C144309942822995C01329A5C120211430A912A22995C01329A5C12020C1C14430B942C22995C01329A5C120211430C912E22995C01329A5C3C
:4005800012020C1C14430D943022995C01329A5C120211430E9132229A5C33215B5C1B021A430F92CC46C44464463C1934192C19009B9C46644401998C466444029A9446C6
:4005C000644454445C44A4B200F01CFF039800F0B7FE4B4698004844400000F069FC059800F0AEFE434698004044400000F060FC069800F0A5FEB800C019400000F058FC80
:40060000079800F09DFEB0008019400000F050FC089800F095FEA8004019400000F048FC099800F08DFE009B98009C466044400000F03EFC0A9800F083FE019988008C46ED
:400640006044400000F034FC0B9800F079FE029A900094466044400000F02AFC0C9800F06FFE534698005044400000F021FC0D9800F066FE5B4698005844400000F018FC47
:400680000E9800F05DFE0498844205D2041BA0000019400000F00CFC0F9800F051FEFA24A400201C00F004FC039800F049FE201C00F0FEFB00F030FE11B03CBC90469946A9
:4006C000A246AB46F0BDC04680B584B000AF78600A1CBB1C1A80114BFB600A23FB1800221A8011E00A23FB181B887A68D318FA6812781A70FB680133FB600A23FB181A8849
:400700000A23FB1801321A800A23FA18BB1C12881B889A42E6D3BD4604B080BD00F2FF0F80B5ACB000AF021C3960FB1D1A700023A822BA1813603A4B1B68FB61394B1B689A
:40074000BB61394B1B687B61384B1B683B61384B1B68FB60374B1B68BB60374B374A1A60374B384A1A602023FB18374A1A602023FB187F225A60AF23FB1800221A7015E0D4
:40078000AF23FB181B789A1CAF23FB181B789B003968CB1819682023FB189200D150AF23FB181A78AF23FB1801321A70AF23FB181B781F2BE4D9204B2022BA181A60204BEE
:4007C000224A1A602023FB18214A1A60FB1D1A782023FB185A60184B2022BA181A60184B1C4A1A60144B1B68A822BA1813600C4BFA691A600B4BBA691A600B4B7A691A601F
:400800000A4B3A691A600A4BFA681A60094BBA681A60A823FB181B68181CBD462CB080BD00010B4008010B401CFF0B4020FF0B4028FF0B402CFF0B4008001040B6E8000026
:400840000400104015000080B6D7000004000080B6EB00001800008080B5A4B000AF78600A1CBB1C1A808E23FB1800221A8035E08E23FB181A888E23FB181B889B007968C0
:40088000CB181B78181C8E23FB181B889B0001337968CB181B781B02011C19438E23FB181B889B0002337868C3181B781B0419438E23FB181B889B0003337868C3181B78E5
:4008C0001B060B43191C0C23FB189200D1508E23FB181A888E23FB1801321A80BB1C1B889B089BB28E22BA1812889A42C0D30C23FB180020191CFFF713FFBD4624B080BDC0
:40090000FEE7C04670B50F4E0F4D13E029686B68AC68002202E001C901C30432A242FAD1E868002202E0002102C304328242FAD11035013E002EE9D100F0CEFFFFF712FDDF
:40094000FEE7C04601000000DC16010008B50F4A136801218B43136000230AE0032B03D89A000B49505800E00A4899000A4A885001332F2BF2D9FFF7EFFB0022074B1A60DA
:40098000024A116801230B43136008BD00001040000000000109000000000020C0000020FEE7C046F0B50025002711E0BB00C658F3B2FF22964308E06A008A181478A419EC
:4009C000527822700135013BDBB2002BF4D10137072FEBD9F0BDC0460323044A1360044A13600022034B1A607047C0463000304030003140000E3F4008B50A1C002100F0B6
:400A0000A9FF08BD08B500F0E7F908BD08B50023044A1370044A1370044A1370FFF7F2FF08BDC0469B270020942700209A27002010B58AB0041C04A81549182200F081FF81
:400A4000144B1B78002B04D1FFF7E0FF0122114B1A70002C19D0062300930F4B01936E23FF3302930D480E490E4A04AB00F094FF0D4B1C60002809D101220C4B1A700C482B
:400A80000F2133320BF018FF00E001200AB010BD001201003C040020801D0100150C0000401300205014000038130020922700200014010008B5022832D81D4B1B78042B8A
:400AC00030D11C4B1B785B072FD400280BD11A4B1A1C40323C2111828022596C0A805B6C20325A800EE001280CD1134B1A1C403296211182C822D200596C0A805B6C8022F9
:400B0000D2015A800D4B18700B4840300AF020F800280CD1074A117804230B43137006E0012004E00420FF3001E00420FF3008BD922700209B270020CC0000209A270020BD
:400B40007047C04603784078000218437047C04638B583890B2B20D1041C04300021221C35330BF0C1FE051E11D16068FFF7EAFF830706D50A4B1B6882204000211C98478F
:400B800005E0074B1B680620FF30211C9847054A137801218B43137000E00025281C38BD381300209B270020024B00225A701A707047C046982700208379002B07D00020B5
:400BC0000BE0C25C002A07D10133DBB200E00023052BF6D9002000E00120704710B582B0041CFFF7B5FF0A4B1B78DB070ED4002809D001A912238B70A3890B80C870206890
:400C00000BF0DAF802E020680BF03CF902B010BD9B270020F0B583B0051C0C1C604A117801230B4313704C2800D9A8E083005D4AD3589F4601AE0727377000237370301CBE
:400C400002F0EFFA377001237370301C02F0E9FA554B1E68301CFFF7AFFF00280CD0301C00F088FE504E30680021FFF769FF30680121FFF765FF14E04C4B1B784C4E3370CA
:400C80004C4B1B7873704C4B1B78B370301C00F071FE301C0021FFF753FF301C0121FFF74FFF032009F016FE0422444B1A7066E02278434B1A7062E0394B1B789B065ED435
:400CC000404B1B78102B02D105223E4BDA703E4B18783C4909F006FF51E00222374B1A704DE00422354B1A7049E0344B1B78022B45D02B4A1278D20741D5294A12785207B3
:400D000008D503222D4B1A70254A137804218B43137034E0224A1278120708D50422274B1A701F4A137808218B43137027E0032B25D10422214B1A7021E0234E301C211C6D
:400D4000022200F0FEFD3178B43149001F4B591805311F48022200F0F4FD10E0FFF724FF0DE06188F423FF33994201D9FA21490020880BF02DF802E0201CFFF72FFF084B72
:400D80001A7811231A4209D0054A137801218B431370104B1B68281C211C984703B0F0BD9B27002054150100200100207CF1FF0F240100207DF1FF0F7BF1FF0F9227002031
:400DC00094270020E001002098270020801D010090270020381300207047C046000000000230800803D00138FDD1C046C046C0467047EFF3108072B6704780F3108870472B
:400E000010B586B0041CFFF7F4FF0E4B1B6800930D4B1B680193033C0C4B1B5D02930C4B1B68039304AA0B4B04936B4605930A4B1A600A490A4A11601B68FFF7DEFF06B0E6
:400E400010BDC04608010B4000010B408816010030001040B6EA0000080010401700008004001040024B1B68012018407047C0460C002E401F2318401E3B8340181C014B47
:400E80001860704700E100E001BE704738B5041C0D1C1F2802D90020FFF7F6FFA400034B9C4664442068256038BDC0464000002010B5041C06E0084B1868FFF791FF074B0F
:400EC0009C46644480231B029C42F4D8024B58686043FFF785FF10BDE40100200080FFFF08B5034B1B7A5843FFF77AFF08BDC046E401002010B5041C0F4A116801230B43E1
:400F000013600E4A0E4B1A600E4A1368802109020B431360002809D100200CE00120FFF7DFFFFFF79FFF002804D1013C002CF5D1102000E0002010BD60F02E400220000033
:400F400078002E4010002E40034B1868C0231B02184000D00120704700010B4010B50D4B1A6801218A431A601A68022082431A60094A10683024A043203C2043106010685F
:400F8000093CA043014311601A68802109060A431A6010BD00F02E4000FF2E4038B51D4B1B6801241C40002802D0012816D02BE0184B19680122914319601968022081439B
:400FC0001960154B19682E3081432038014319601968093881430A431A6018E00D4B1A6802218A431A600C4A10680725A84301431160116830208143103801431160196832
:4010000001220A431A6002E00020FFF73DFF201C38BDC04600F02E4000FF2E4008B5FFF7E8FE044A1368C02109020B431360FFF7E4FE08BD00010B4010B5FFF7DAFE0849B4
:401040000A68084B1A408024E40122430A600A6813408022120213430B60FFF7CEFE10BD00010B40FF3FFFFF70B5061CFFF7C1FE041CFFF769FF002803D0FFF7DDFF012539
:4010800000E000250848331C0340084A106808490840184310601368012D01D1FFF7BEFF201CFFF7AAFE70BD0404040010020B40FBFBFBFF10B5244B1B685B0715D5234B1C
:4010C0001B685B070ED5224B9969042001401F4C22688A4322609A6982439A61DB68002B00D098470420FFF7BFFF174B1B685B0518D5164B1B685B0510D5154B99698022F9
:40110000D2001140114802688A4302609969114A0A409A611B69002B00D098478020C000FFF7A2FF084B1B685B030CD5074B1B685B0304D5064B5B69002B00D098478020F3
:40114000C002FFF791FF10BD10020B40F401002040040020FFFBFFFF014BD8647047C0460000002010B5041CFFF743FE044A13689B009B08A4071C431460FFF73EFE10BD87
:4011800000E400E00822014B1A60704700E100E00822014B1A60704780E100E010B5041CFFF7F6FF201CFFF7D7FF0320FFF7DAFFFFF7E8FF10BDC046024B18688006C00F7F
:4011C0007047C04604030440034A10682023184010604009C0B2704710030440044A11687F230B40C001C0B2184310607047C0460003044004490A68BF231A4080017F3B62
:4012000018401043086070470002044008B5FFF7F0FD044A136801218B431360FFF7EDFD08BDC046000020400004000C014B18607047C046080120400004000C014B1860F9
:401240007047C046140120400004000C014B18607047C0460C01204038B5041C0D1CFFF7C8FDAC40024B1C60FFF7C7FD38BDC0460800204008B5FFF7BCFD064A1168012322
:401280000B431360FFF7B9FD01201821FFF7E4FF08BDC04600002040014B18607047C0463801204010B50D4C8023DB042360236823600020FFF7B8FF236823600C22084BBC
:4012C0001A600120FFF7E8FF3122064B1A600820FFF7B2FF0420FFF7B7FF10BD00012040240120402801204008B5064B1B78002B04D1FFF7D7FF0122024B1A70FFF7BAFF67
:4013000008BDC0465C040020024A117880230B431370704773000F40024A11787F230B401370704773000F40014B18807047C04604100F40014B18807047C04684100F405A
:40134000014B18807047C04644100F40014B18807047C04664100F40014B18707047C04683000F40014B1878C0B2704763000F40014B188880B27047A4100F4008B501E035
:40138000FFF7F6FFFFF7EEFFC306F9D408BDC04638B517490B783F229343363A13430B7014490A7801231A43D2B20A70124C22781343DBB22370114D281CFFF7B5FF281C5A
:4013C000FFF7B8FF0E4D281CFFF7BAFF281CFFF7BDFF0020FFF7C0FFFFF70BFD2278102313432370FFF709FDFFF7C8FF38BDC04673000F4092000F4093000F400F27000004
:40140000DC05000008B5064B1B78002B04D1FFF7BFFF0122024B1A70FFF776FF08BDC0465D0400200160704701607047244B1A781202244B1B781A43234B1B781B02234997
:4014400009780B4322498B4201D1072A06D0D42109018B4206D1042A04D102E01D4B042200E01C4B1C490B601C4B1A601C4B1B781B021C4A1278134380229201934202D045
:40148000002B02D002E0184B00E0174B174A1360174B1B781B02174A12781343164A934205D0164A934204D0052B05D103E0144B02E0134B00E0124B124A13607047C0461D
:4014C000D9F0FF0FD8F0FF0FDFF0FF0FDEF0FF0F580B0000580D00006C002E4074002E40DBF0FF0FDAF0FF0F0220000078002E40DDF0FF0FDCF0FF0F0F0F0000050500006C
:40150000050F000080002E4008B5FFF7E9FC08BD08B500F02FF808BD08B500F033F808BD08B500F02FF8034800F00EF8022000F011F808BDCD15000008B5024800F02AF826
:4015400008BDC046CD150000014B18677047C0460000002010B5041CFFF74BFC044A1368C0218B43A4011C431460FFF746FC10BD0CE400E080225201014B1A607047C046B7
:4015800000E100E080225201014B1A607047C04680E100E010B5041CFFF7F4FF201CFFF7D3FF0220FFF7D6FFFFF7E4FF10BDC04608B5FFF71EFC044A136804218B4313604A
:4015C00030BFFFF71AFC08BD10ED00E008B50FF0FBFC08BD002243088B4274D303098B425FD3030A8B4244D3030B8B4228D3030C8B420DD3FF22090212BA030C8B4202D31E
:401600001212090265D0030B8B4219D300E0090AC30B8B4201D3CB03C01A5241830B8B4201D38B03C01A5241430B8B4201D34B03C01A5241030B8B4201D30B03C01A5241E4
:40164000C30A8B4201D3CB02C01A5241830A8B4201D38B02C01A5241430A8B4201D34B02C01A5241030A8B4201D30B02C01A5241CDD2C3098B4201D3CB01C01A52418309F9
:401680008B4201D38B01C01A524143098B4201D34B01C01A524103098B4201D30B01C01A5241C3088B4201D3CB00C01A524183088B4201D38B00C01A524143088B4201D310
:4016C0004B00C01A5241411A00D20146524110467047FFE701B5002000F0FCF802BDC0460029F7D003B5FFF775FF0EBC4243891A1847C04603460B437FD4002243088B422C
:4017000074D303098B425FD3030A8B4244D3030B8B4228D3030C8B420DD3FF22090212BA030C8B4202D31212090265D0030B8B4219D300E0090AC30B8B4201D3CB03C01AF6
:401740005241830B8B4201D38B03C01A5241430B8B4201D34B03C01A5241030B8B4201D30B03C01A5241C30A8B4201D3CB02C01A5241830A8B4201D38B02C01A5241430ABB
:401780008B4201D34B02C01A5241030A8B4201D30B02C01A5241CDD2C3098B4201D3CB01C01A524183098B4201D38B01C01A524143098B4201D34B01C01A524103098B42BC
:4017C00001D30B01C01A5241C3088B4201D3CB00C01A524183088B4201D38B00C01A524143088B4201D34B00C01A5241411A00D201465241104670475DE0CA0F00D04942AB
:40180000031000D34042534000229C4603098B422DD3030A8B4212D3FC22890112BA030A8B420CD3890192118B4208D3890192118B4204D389013AD0921100E08909C309C9
:401840008B4201D3CB01C01A524183098B4201D38B01C01A524143098B4201D34B01C01A524103098B4201D30B01C01A5241C3088B4201D3CB00C01A524183088B4201D3CC
:401880008B00C01A5241D9D243088B4201D34B00C01A5241411A00D20146634652415B10104601D34042002B00D54942704763465B1000D3404201B5002000F00BF802BDE7
:4018C0000029F8D003B5FFF715FF0EBC4243891A1847C0467047C0460E4B70B500251E1C0D4CE41AA410A54204D0AB00F35898470135F8E70FF0E0FE084B00251E1C084CB1
:40190000E41AA410A54204D0AB00F35898470135F8E770BDC4160100C4160100C4160100CC16010030B50024944208D0035D651C0C5DA34201D0181B02E02C1CF4E70020A0
:4019400030BD002310B5934203D0CC5CC4540133F9E710BD031C8218934202D019700133FAE7704710B501F0FDFB10BD10B500F067F910BD10B5074904460978022000298C
:4019800007D1204601F00FFC002802D1204609F08BF810BD02030020FFB585B0002568460E9F057339481C460078002802D0082009B0F0BD10990F9801900097029105A8A2
:4019C00007C800F067F80028F2D10120694603AA0D73002C1BD0002113E08B00E55A082D09D91E19B678002E05D0083DE55213785B1C137003E0042901D2012003E0491C20
:401A0000C9B2B942E9D31178042900D300200028CED110990F9800F057FF002801D00120C6E701F09FFB1A480599016021888180A188C180A27A0272A17B4172A0890125F9
:401A400040084843A0810220A073208950432081A5726846037B22460799069800F0A2F80028A5D16846094C007B607001F082FB00289DD1064806F0F1F9002898D106F048
:401A80000DFA002894D1257092E70000F801002060040020FFB53A4F1C4603463F780020364A0A9E0B9D002F12D100290FD0029991420CD3002B0AD0002C08D00999042919
:401AC00005D3002E03D0FF216E318D4202D2012004B0F0BD00210A460D463FE08B001E19B678002E36D0E35A002B33D073435B199DB20B0000F048F806040E15191D253F3C
:401B00002388FF27A678233BEB37BB42DFD2032EDDD31FE0A3880C2BD9D91A4EB342D6D818E02389302BD2D114E0A389482BCED110E0228A134E1346233B223EB342C6D214
:401B400008E0A38A0F4F1E46233E223FBE42BED29342BCD80028BBD1491CC9B2099B9942BCD319461C2251434A190449521802998A42ACD8ACE70020EEE70000D808000093
:401B8000F8010020DCFF000030B47446641E2578641CAB4200D21D46635D5B00E31830BC18470000FFB50F4606460024384381B01D46800701D0012438E0FFF7BDFCFFF7AF
:401BC000ABFC00F097FA00282ED100F0D3FB00282AD11849084600F0ABFE0004000C23D13000154E04D03060B7800020F0803581AD1DEFB23946039800F046F804000ED15F
:401C0000B088F2880837801AF9B280B201F080F9002801D0012407E0E8B200F019F900F031F906490120087000F076FA204605B0F0BD0000751D00006C040020FA010020CA
:401C400010B503480078012801D101F003F810BDFA01002070B5084B0446DA889E8800205518B54206D81D68AA182260DA885118D98070BD032070BD6C0400200148008995
:401C8000704700006C040020F0B587B007460D4600208900009006916846FFF7DBFF844600285DD1304800990160002117E02E4B88001A680629115406D22C4C0419667807
:401CC00082185670628805E0C419203CA67A8218567022891B68C018491C4280C9B2A942E5D300242DE0601CC2B2059025E01E4FA3003968960058184088711803960490C1
:401D00004E88B04217D938466F46FE80B6464F786E4677710297049F4F800168039F5E18767879184E700168764659184E800068029F18184770521CD2B2AA42D7D3059899
:401D4000C4B2AC42CFD36046002809D168460699FFF780FF8446002802D1054900980860604607B0F0BD0000FC010020F0160100000200207047000010B5002809D00549C5
:401D80004A68002A05D0011F08788000105801F06DF810BDFC01002010B50446FFF76EFFC0B2801DA0420CD307484068002808D0A100405800F0CCFF002801D00470001DF3
:401DC00010BD002010BD0000FC010020F8B516460D460446FFF752FFC0B2801DA04203D20020C0430090F8BDB2B2E9B2684600F0D5FF0099481C03D0024AA00052681150A9
:401E00000098F8BDFC010020F8B50746FFF736FF801DC6B20A49002005460C680DE06178002907D06188B94202D32078FFF7B4FF002804D1241D6D1CEDB2B542EFD3F8BD38
:401E4000FC01002010B5002801D0FFF795FF10BD70B506460948002504680BE06178002905D062882078121D0023FFF7AFFF241D6D1CEDB2B542F1D370BD0000FC01002035
:401E8000002070471CB5002469460C70142001902346054A05480CF0DBFC04480068401C00D1FF2420461CBD011F0000040200203EB5124A0146FF20002301241268002965
:401EC0000DD0012914D0042908D104206946009308814B8110460CF0B6FC80B23EBD6846009304814381694610460CF0A7FCF4E768460093048143816946EBE704020020CB
:401F000070B545890468416800890300FFF73CFE06240408081D2124002004F075FF1BE0022908D0C8B22A4621460AF03BFF2046FFF788FF10E002202A4621460AF032FF3B
:401F40002946204600F00AF806E000200CF074F902E020460CF002FD002070BD014B0022DB6818470802002070B5448905680089022803D0032809D0FF2070BD2246094C6F
:401F80000023A46829460120A04708E0FFF7EAFC241DA2B200232946022005F042FE002070BD000008020020704700000248002141600180418070470802002070B50C4665
:401FC000002186B016460391012802D0022859D116E003A9012005F07CFE01281BD1039D324621462846FFF7ACFC0095287801900220694608814E816846FFF7B5FF41E011
:40200000214D002B686809D0049004A9022005F060FE01281DD0022006B070BD002812D0298840182146FFF78CFC28880024801980B228806988091D884206D12C8013488F
:40204000FFF792FF03E00320E6E788421AD96C6018E004986860E278A378110219430B4A698000231060E3565360032313815181A1788170E178C1706178417021780170CC
:40208000042028800020C7E708020020780400203EB515460C46022803D004280CD000203EBD0091019002206946088107484A8100680CF0C8FB07E00AF074FE044B00227F
:4020C000DB6829462046984701203EBD0402002008020020014AD1609060704708020020034801688068081A0A214843000970478404002010B5FFF713FA5422044905487C
:40210000FFF71FFC03490120C870002010BD00000C1701006407002010B5FFF7F9F910BD70B5134C2368002B08D0207B1149C20705D04008400020738868A08070BD8868E6
:402140000B4AA18880B29268814203D90A4D691A091802E0814202D2411A5118A160A080A0689842EAD300F015F80CF089FB70BD84040020C0102E40FFFF000010B508467D
:402180001946FFF7A7FF10BD704710B5FFF780FF10BD000003480021016041608160C160704700008404002010B502000DD0FFF7F1FF074C0321207B0843207310010A2114
:4021C000FFF78EFA2060002010BDFF2010BD00008404002000B504480A21806848430209FFF7D8FF104600BD840400200248007B8007C00F704700008404002010B537496F
:402200000868002802DA364B01221A70022290430860344800693149C00B4031096A08425AD0012000F02AFA2E482F497C30FFF7FBF82A480E216C30FFF7F6F82948202190
:402240008430FFF7F1F8274814219C30FFF7ECF82448FF21C131A430FFF7E6F82148FF212F31B030FFF7E0F81E482049BC30FFF7DBF81C481E49AC30FFF7D6F81C4919480F
:40228000491CB430FFF7D0F816481A49B830FFF7CBF814481849CC30FFF7C6F8114817490830FFF7C1F80F481549A830FFF7BCF80C4814498830FFF7B7F80A4812498C30FA
:4022C000FFF7B2F807481921C9029030FFF7ACF8FFF7ACF8002010BDFF2010BD00F02E401802002000002E4055650000320300002F3F00003102000010520000EC16000023
:40230000FA12000031D000003AE3000070B50646581C80B245086D00002408E0304600F07FF81055000A1119A41C4870A4B2AC42F4D3D80705D0D0182038D15CC47FD45411
:40234000C17770BD30B50A4C002100195B1E07E0541864782502545C2C430480891C89B29942F5DB994201D1515C018030BD000000102E4010B5FF2000F080F90F49FF207C
:4023800048700E481021801D41800121417001700A490020C91C4870FFF730FF04000AD100F0CCF807210648FFF73CF8044807211830FFF737F8204610BD00001802002086
:4023C000CC112E4030B504465B1C1804450C002308E0204600F024F8241D59005B1CA4B250529BB2AB42F4D330BD000070B500210A4D5B1E0AE0541864782602545C344374
:4024000046193480001D891C80B289B29942F2DB994202D1515C4019018070BD00102E40014940180088704700102E40014A80180180704700102E4010B50B4900204870E9
:4024400000F07CF8002000F03FF9002000F02CF907210648FEF7E6FF044807211830FEF7E1FF002010BD00001B020020CC112E4010B50B46062812D006DC01280CD00328ED
:4024800001D1FFF7D9FF10BD0A28FCD00B28FAD105480078107010BDFFF76CFF10BD1146184600F02DF910BD1E020020F8B5204DAC6A0127A0071F4E002816DA3078062841
:4024C0000ED1286A384328621B480069F903084381B219481030FEF7A7FF042000F0CEF8134802212830FEF79DFFE00711D0062000F0C4F80F49FF20C91E487070780028E3
:4025000002D1686B38436863094801212830FEF789FFE0050BD53078042802D1052000F0ADF80348FF2101312830FEF77BFFF8BD40F02E401B02002000002E4010B50321F6
:402540002348FEF771FF0120FEF7DEFF20483038406A204C80076178800F890001431C480C38FEF761FF6078002808D0401E022181401820FFF7A4F9C000083800E0B8205C
:4025800081B21548FEF750FF1348032109021438FEF74AFF10481149B830FEF745FF612189010F48FEF740FF0D480321001FFEF73BFF0C490C48FEF737FF0B480B496038EF
:4025C000FEF732FF084801218838FEF72DFF10BD70F02E401E020020D8102E4090890000041E2E40FF0F000058122E40209000000849087806280BD148780749002803D10B
:40260000486B400840004863C86A01221043C862704700001B02002040F02E4001480078704700001B02002000B50300FFF7ACFA080D050D0B070507090D012000BD0320EB
:4026400000BD042000BD022000BDFF2000BD0000074A9168D26889B2064B92B2994204D105498A4201D1012100E000210170704780002E4033D000003FE3000010B50446A4
:40268000FEF74AFF072C01D9FF2C01D102480470FEF73EFF10BD00001B02002001494870704700001802002010B5064A012805D01921C9021046FEF7B7FE10BD1D21C902F7
:4026C000F8E7000090002E4010B50A4A141D012808D009491046FEF7A7FE08492046FEF7A3FE10BD04491046891CFEF79DFE0349491DF3E788002E4031D000003AE30000DE
:402700000078074AFF2803D04C2804D9553803E01078087070474F3808701070704700001A020020F0B50122002830D000292ED00224420600D003246D2342065B06D2184D
:4027400000D0641C034600221EE00C2516466E43104D00277519AF720E4F002ABB51696007D0661EB24209D106466D367606760E05E05E06760E8027BE1B00E080269B1934
:402780008919521C2E81D2B2A242DED300221046F0BD000004060020074900200C2242435218927A012A05D0401CC0B20428F5D3002070470120704704060020F8B50446C7
:4027C00016460F000BD0184D6868A04203D9FF306E30A04203D3FF206E30864201D90120F8BD2046FFF79EF800281BD0324639462046FFF7A6F8F0B200210C224A43521907
:4028000013895668F718A74208D90127A41B1B1B9772834206DAC01A1469C0B2491CC9B20429EAD30020F8BD0406002010B500F05BF80648FF22C1686E320C460448FFF734
:4028400080F803492046FFF76DFF10BD2402002094040020002070470020054A002902D0012902D002E0506000E09060002070472402002070B5084C154608460549A268CB
:4028800089182A46FFF75DF8A0684019A06028B270BD000094040020240200203EB50A226946FFF7E7FF044606480A2200686946FFF738F8002802D00020C0433EBD20462D
:4028C0003EBD000024020020002803D0FF226E32914201D2FF20704702490A61C860002070470000240200200248002141608160704700002402002070B5074C154605485A
:40290000626880182A46FFF759FF60684019606028B270BD940400202402002010B503490A220968FFF7E8FF10BD00002402002010B50F4A002313600E4A13600E4B1860A3
:402940000E4801600E49012008600E490860000290600E490C4808600D4914300860FF381538506000F0BCF800F0CAF9002010BD50020020380200206402002068020020A6
:40298000540200204402002034070020480200205C020020014610B50020002910D0094B1A689C685118A14209D25868196080188A0704D08A07920F891A091D196010BD4B
:4029C000002010BD38020020F8B50024164E671E321F3D463168136806E01422624310328A58521C1BD0641C9C42F6D36A1C14D02C461422544322460C3288500C214843AA
:402A0000FFF7C8FF3168002808510AD031680020103408517068401C70602846F8BD2546E4E73846F8BD000048020020F3B50026F64381B000281BDB1E490968884217D8AE
:402A40000299002914D01B4F142204463F1D54432546396810354859401C09D0FEF75CFD38682F1F4159C359994203DBFEF750FD3046FEBD214608310091465801590C2037
:402A8000704308180C220299FEF75BFF0948761C001D0068C159B14200D100260549009A091D865008684159491C4151FEF730FD0020FEBD44020020002803DB07490968B0
:402AC000884202D90020C043704704491422091D09685043103008587047000044020020F0B500200D4A451E0346171F50600FE014260146714314680E1DA3510C461668B0
:402B0000083433511668083435511468401C635039688842ECD30020F0BD000048020020F3B50026F64381B0002841DB2349096888423DD8029900293AD0204F14220446B4
:402B40003F1D54432546396810354859401C2FD0FEF7E2FC3868415900292BD0211D009146580C21005971430F46C1190C220298FEF7E7FE11480021001D0068761C005982
:402B80000C34C0190160416081600C48001D00680159B14200D100260849009A091D865008684159491E4151FEF7B2FC0020FEBD3046FEBDFEF7ACFCFAE70000440200207F
:402BC000FEB504460D4600201E49089E0860471E009001900290002C11D0486885420ED2002A0CD0002E0AD0642E08D808460C3001681C2068430C18207A002801D03846E5
:402C0000FEBD0120226020721846FFF7DDFE6060401C13D06681A6810A4827610C3067610179A94200D205710021684601810A462846029B00F040F82846FEBD002020722E
:402C4000DDE700005002002038B50124009400F039F838BDFEB50027164EFF433D4600240EE01C20316860430818017A002906D04068FFF721FF002801D0254603E0641CB6
:402C80003079A042EDDA681C12D01C2130684D434419FEF741FC69466068FFF741FF0546FEF736FC002DD9D1216868468847D5E7FEBD00005C02002038B50024009400F0E2
:402CC00001F838BD1FB500220C49541E0A60002811DB496888420ED808491C220C31096850430818406801A9FFF7A0FE401C02D0002004B010BD2046FBE7000050020020EB
:402D0000F0B50021114A4D1E174611710C3F0B46BD6016E008461C2460431668041D355114680646235014680836A3551468361DA353044616680A34335318301468491CBC
:402D4000255078688142E5D30020F0BD5C02002038B500210091002811DB0F49097888420DDA0D4D04010C3529680859002807D0201D0818694600F071F9002801D00020EB
:402D800038BDFEF7C9FB28680F34015D491E0155FEF7BEFB009838BD6C020020F7B582B0002502986E1E06602E48D21C024017462D4A2C4610460C380178106805E023019F
:402DC000C358002B0FD0641CE4B28C42F7D3711C28D03401211D40180191039900F02CF900281FD101E02646F1E71F48016820460C300F521C480399026820460E301154EA
:402E000019480399026820460F3011540398784300F0A0F8144900280968085102D00024009011E001251AE00F48016801980818009900F02EF9002801D0012502E000989B
:402E4000C0190090641CE4B203988442ECD3002D05D10298066004480179491C0171284605B0F0BDFCFF000078020020F8B50D4600216A468C461180002839DB2349097851
:402E8000884235DA214B04010C3319680A59002A2ED020460C300B5A801C0E5C184670438018954224D3854222D2002006E007465F43BF18AF4206D0401CC0B2B042F6D322
:402EC0006046002814D0114E271DC8190C366A46294600F008F900280AD168460088012808D030682946C01900F0D3F8002803D00120F8BD0020F8BDFEF70EFB30680F34F6
:402F0000015D491C0155FEF703FBF3E76C020020F8B50F46002400F033F8002817D10C4900220B460C334A600EE021011D680E466A501D680C36AA53B61C1D680F31AA551E
:402F40001D68641C6A54E4B2BC42EED31A71F8BD6C020020014610B5002000290CD0C91C064B8A08596892005C888A18A24202D898685A60401810BD002010BD6C02002081
:402F8000F8B5064600200F4D009029700C0121466846FEF75FFE00280CD129460C3100980860301B001F84B221466846FEF752FE002801D0FF20F8BD6C800098A8600020DB
:402FC000F8BD00006C020020F8B5002827DB19490978884223DA174C05010C342168485900281CD028460C30085A009028460E300E5C401C0E5420682F1DC01900F064F8BD
:4030000000280CD12068002445590EE0094829460C300068C01900F03CF8002801D00120F8BD00982D18641CE4B2B442EED30020F8BD00006C02002030B50D4604000BD0FF
:40304000A800FFF787FF6060002805D000202570C0436080002030BD012030BD70B50D46040005D0002D03D00220205E002801DA012070BDFEF750FA0221615E6068890008
:40308000405828606088401E6080FEF741FA002070BD70B50D46040007D0002D05D002212078615E401E814201DB012070BDFEF733FA6088401C00B26080616880000D5095
:4030C000FEF726FA002070BD10B5040009D0227800216068FEF73EFC0020C0436080002010BD012010BDF0B500231D46002802D00224045F0AE00120F0BD46689F00F6593A
:403100008E4201D1012503E05B1CDBB29C42F4DA15700020F0BD00000148007870470000800200207CB505460024FEF71BFCA8796946087000A8062229460130FEF701FC72
:403140000021684604F0BEF80C2804D0072804D01F2804D004E0022402E0042400E0272420467CBD10B500F0B7F8FFF757FAFFF75BFA10BD10B503240BF076FF002810D1AA
:403180000BF01AFF00280CD104F0F2FD002808D100F064FA002804D104F0EEFA002800D10024204610BD70B50025044600280ED0A07901280BD8FEF7D5FBA0790028204670
:4031C00002D002F0D5FD03E002F08AFD00E00125284670BD38B504460120002C20D0617801291DD800290BD0FF25E535FEF7BAFB2846FFF715F9C0B22070072803D00EE080
:40320000FF25CD35F2E70020694608706846FFF71FFA69460878012801D108202070002038BD70B504460120002C1FD06178012902D92278092A19D8002905D0FF25E53511
:403240002078092803D004E0FF25CD35F8E707202070FEF787FB2078082808D00020FFF733FA21782846FFF7E1F8002070BD0120FFF72AFA0721F5E770B50D46040001D009
:40328000002000E00548002802D0012101F0A8FF2946204602F082FA70BD0000D807002038B5054600200446009022466946284600F06CFE0098002801D00BF0B7FEA8782C
:4032C000214602F0AFF8A878214602F09EF8641CE4B2052CE9D338BD38B5FFF79FF9042819D0052817D006281AD0032842D007280AD100206946087002460120FFF7B8F86E
:40330000FFF78CF90128FBD138BDFEF751F9FFF785F90128F8D0FFF781F90128F5D138BD02F0E8F805E0FEF743F9FFF777F9012803D0FFF773F90128F5D1A1242401204645
:40334000FFF76EF801220E4983079B0F0A70022BE5D149880029E2D0104301462046FFF765F82046FFF75CF8410849002046FFF75DF838BD02F0C2F80120FFF77FF938BDCF
:4033800086020020F8B50646002402F0F5FD0546304602F009FE00210346012632468A40174610462F401840002F03D0002801D1224394B2491CC9B20529EFD32046F8BDCB
:4033C0001CB50020694648706846FFF703FF01AA69460A20FFF74CF86946042008561CBD10B50C4601F078F9002809D00179002906D0C1788078224602F07EFA002010BD24
:40340000022010BD0148007870470000A40700204030C07E002800D00120704700B500F001F800BD88214843064940186030417F491CC9B24177052901D300214177C8B269
:4034400070470000B807002013B501F045F904000BD001F098FC002807D0214601AA0A310620FFF705F800201CBD02201CBD000010B50C4601F030F900280AD001F083FC5F
:40348000002806D0224604490A20FEF7F1FF002010BD022010BD00008D070020F3B581B0074601460026029802F05EFD0446002F01D0002500E0154D002D21D0284601F012
:4034C00041F9032C04D13946029802F077FD06463846029901F099FF032C06D0002C10D00121384601F01CFA03E03146384602F019FF284601F05AFE0221284601F070FEE0
:40350000FEBD3846029901F080FFFEBDD807002070B50446002503F00FFB002801D00C2070BD2078611C02F0E1FAFF2802D01F25284670BD02F02EFBFF2804D02178621CC3
:4035400001F0D8FEF4E70725F2E710B503F0F4FA002801D00C2010BD02F0A0FA002010BD70B50D46044610210BF0A0FC1021601806460BF09BFC334610221946204603F01F
:4035800007FB102130460BF091FC02202870204604F04AF870BD70B504464078217802028006850FE0781143A67809050002090D0643084601F090F8002812D0022D10D060
:4035C000032D0ED0002E08D00179092909D0002907D0214600F0A1F870BD0089002103F058FF20460BF022FD70BD0020704770B50446002503F0A0FA002801D00C2070BD2A
:403600002078611C02F072FAFF2802D002F0B4F900E01F25284670BD10B504F0ADF800F0F6F8002010BD10B5044600786178E2780843A178114308432179084361790843D0
:4036400005D003F06BFA002803D00C2010BD122010BD204602F08CFB002010BD10B5044803F0D4FA02F092F900F004F8002010BD74070020F8B5114D00266E706E736E71CC
:403680006E76AE76EE766E75AE70EE70AE712F46EE730120B03778723F207871FF20B87100F00AFA0024204601F034FB641C2406240EF8D03E72FE71AE73F8BDB8070020B2
:4036C00070B505460E46084602F056FC0446304602F06AFC0121A9400A46224001400A4301D0012070BD002070BD10B50446084602F05AFC0121A140014201D0012010BDFB
:40370000002010BD10B5FEF789FF032804D101F0F5FE0120FEF7B2FF10BD70B5044600790D4609281CD000281AD020464030817E491C8176204601F039FDA078FFF76EFE40
:40374000064602462946204600F00CF8002806D1A0783146FFF790FD28460BF067FC70BD0846FAE7F7B5054648780C468006870FC8788978000282B00143684681802846B8
:4037800001F00CFB060007D021462846049A00F091FB304605B0F0BD384600F039FC0746034601AA2946204600F0CAFA68468088231DC0B20090A878FF22049901F0A8FF92
:4037C000684680883B46C2B2A878049902F04CFBDFE770B5002500242846FFF7D3FD060010D03046E040C007C00F07D02146284601F0FFFD21462846FFF750FE641CE4B2E6
:40380000052CEED36D1C2D062D0EE4D070BD10B502F0BCF8FFF72EFF0BF070FC002010BDF8B5002400F081F80123012800D10124104F00203E4620360425082203E00028A8
:4038400001D0002100E031460979002907D001290BD002290BD0114681402143CCB2401C0006000EEBD07C70F8BD1C43F7E72C43F5E70000B807002010B5FFF7D1FF10BDED
:4038800010B50B4681791943817103D08078114602F0AEFA10BD10B582798A43827102D1807802F0BDFA10BD70B5FF25D53502242846FEF7B5FD0C4A9178002901D002294E
:4038C00006D1137852789A18282A01D9032402E0032900D101244105490DE00201432846FEF7A4FD70BD00008202002010B500F022F8002807D0012805D0032801D0042808
:4039000001D0002010BD012010BD014610B50020C90701D000F009F810BD014610B50020C90701D000F001F810BD10B52020FEF777FD000A10BD10B51820FEF771FD4105E2
:4039400001D5042010BD4007800F10BD38B5044640060CD5684601F0D7FD0220FFF78CFF072002F02FF96846007801F041F9200613D5FFF7E0FF01280FD1684601F0C4FD8B
:403980006846007800F09AFA072002F01BF9012001F074FC0220FFF76FFF38BD10B5034A0178117002F01DF9002010BD8202002010B50446FFF7B9FF002801D00C2010BDDF
:4039C000A27B01211848002A827801D00A4301E05208520082706279012A0FD0C17849084900C170207901280CD06188208802F007FF2080207904280BD00DE0C2780A43A3
:403A0000C270EFE7E01D02F09BF90848808C208002E0E01D02F094F9054920798870204602F0EEF8002010BDB8070020640700208202002038B50478FFF777FF844201D11C
:403A40000C2038BD002C18D0072069460870FFF74DFF012807D10121684600F08DF8012801D0092038BD6846007802F0ABF8FFF71BFF02F0F2F8012010E0FFF737FF012816
:403A800006D1684601F040FD6846007800F04AFA072002F097F802F0D7F80220FFF7ECFE002038BD10B5034A0178517002F078F9002010BD8202002038B568460BF04CFA5D
:403AC000002801D01F2038BD01210098C90201804180002505714571857107214173857302F08EF8009C202200212046FDF732FF25702A460021601CFDF72CFF204602F09C
:403B000070F8204602F04CF900980BF08FFA042200210248FDF71EFF002038BD820200200346084800B5834209D8184600F0D4FD002804D00089984201D1012000BD0020C7
:403B400000BD0000FF0E0000074A9179491C8906890E917138220A4092014907090E11430843024908407047B8070020FF0E0000C006C00E70470000F8B507460E46002463
:403B80000D4803E0002C01D0002500E005462979002905D0641C2406240EF3D00020F8BD204601F0B7F82E712046FFF7CDFF28813C700120F8BD0000D807002010B503F0BD
:403BC0001BF80222002100F003F801F087FE10BD10B5094B40074907000F090F185A595A40185043C0086421FDF77AFD002800D1012080B210BD000060170100F7B53D2006
:403C0000405C88B016460C46002829D030786946087200252046FFF7FBFB012800D00125204603A938300191009023460327A17E34332A46206A03F003F802A80899009002
:403C40000B46019120463A4603A9243002F082FF02466846007A3070204601F047F810460BB0F0BDFFB587B00C4605461078694608723D20005D1746002826D000262046AA
:403C8000FFF7C6FB012800D00126204603A93830019100902346A17E34333246206A02F0CFFF02A80090291D019120462B1D03A924300A9A02F04EFF02006846007A38805B
:403CC00002D1204601F012F810460BB0F0BDF7B53C20405C88B015460C4600280CD0287869460872002806D000262046FFF790FB012803D003E01F200BB0F0BD012620465E
:403D000003A938300191009023460327E17E34333246E06902F094FF02A8089900900B46019120463A4603A9243002F045FF02466846007A2870204600F0E2FF1046DBE77D
:403D4000FFB505463C20405C87B016460C46002810D0084601F022F801280BD0308869460883002809D000272046FFF751FB012805D005E000200BB0F0BD0220FBE70127A9
:403D8000204602A93830019100902346E17E34333A46E06902F054FF06A80090291D019120462B1D02A924300A9A02F005FF02466846008B30806846008BA870000AE870EA
:403DC000204600F09DFF1046D5E770B50D460446FFF71EFB01280AD0E87AA97A00020143A07801F04BFC012808D0002070BD00222421204602F04EFC242070BD28214C2053
:403E00000155204600F09AFB282070BD002801D0002000E003484030C07F012800D0002070470000D80700200146002049070ED50021084B03E0002901D0002200E01A46BD
:403E40001279022A04D0491C0906090EF3D0704701207047D80700200146002049070ED50021084B03E0002901D0002200E01A461279022A04D0491C0906090EF3D07047FE
:403E800001207047D807002010B5044680346068002803D00BF0DEF80020606010BD4030417070474030817070474030017070470171704792001018C166704770B53C2558
:403EC00001F0F6F8040004D020460021433001F08FFB2946204600F0C3FB002C02D0A07801F078F870BD000010B5002801D0002000E00348002802D0008903F011FB10BD17
:403F0000D807002010B5002801D0002000E00448002804D00179072901D100F041F810BDD807002010B501F0C3F8002802D0807801F050F810BD00207047000070B505465B
:403F4000008A00281ED010491122897A1140C90618D5294640314A8A098A521C4A4392B2D10800D10121540801E0621A94B2A042FBD9FFF7D1F8012804D1298AA878224606
:403F800001F05AFC70BD00006407002000230B60052A04D292001018C26E0A60C366704738B5044600200090A079002814D14020015D052901D00E290ED168460AF0DCFFD8
:403FC000002809D12046009902F04CFB03481021C28A2046FFF754FC38BD00006407002010B50B4604460146184602F01BF8002802D020460BF024F810BD13B5044601AA88
:4040000011460620FEF734FA6846818861811CBD002800D10220704770470000F8B504462346401D543300909A1EA078911E01F07AFA25464035A88A298A8000FDF750FBA9
:40404000401E81B2688A884203D96982A07801F04CFF20460021433001F0CAFA8020FEF7DFF9E88102F0C8FDE989891C8AB26179FFF7AEFD01F032FC02F0BEFD2A8A617974
:40408000FFF7A6FD074601F01BFC688A00280BD0FF26F1363046FEF7C3F90321090201433046FEF7C3F902E0002001F00CFFFF206130FEF7B5F96E8A002E0BD070431049B2
:4040C000FDF7FEFB0004000C01D0401C80B20D49488002E00B4800214180288A704381B2A07801F06BFE2837B9B2204602F08CFBE98AA07801F0BAFDA07801F0A9F9F8BDE9
:4041000071020000860200207FB504468034616805460E46183108226846FDF712FC31462031082202A8FDF70CFC102168460AF0BDFE6068102108300AF0B8FE60682B4661
:40414000083024331022694602F022FD7FBD10B504460821FFF79FFB10212046FFF79BFB207905281FD006281DD008281AD12189002003F04DF9072020712046FFF748F954
:40418000014620464030012913D00E21017000210176204600F02AFF2046FFF775FE2046FFF7CCFE10BD20890122002103F014F9E1E70521EAE70000FFB581B01F4604461C
:4041C0000821FFF768FB10212046FFF764FB2079082803D0092804D0042203E00422012501E009220025204600F0C4FD264600204036307022712046FFF746FE0398002D76
:4042000002D0012808D00BE001280AD120890022029903F0E1F804E02189029803F0F8F8012700203076012F04D0204600F0DEFE05B0F0BD02983073204602F057FA0546C8
:4042400005480121C28A2046FFF71AFB002DEFD109202071ECE700006407002070B50C460546FFF7D5F8012809D108212846FFF712FB0023012221462846FFF79DFF70BD11
:4042800010B5044600F076FD2046FFF7FDFD00214034217010BD70B505461A24FFF7B8F8012809D108212846FFF7F5FA0023012221462846FFF780FF70BD0000F8B50446BC
:4042C000002000900E4668460AF056FE002801D00D20F8BD8420005908212030009D00F0F7F920460421383000F0F2F9002E02D1204600F07DFD2946204602F043F90E48F8
:404300000821C28A2046FFF7BBFA204600F0D5FE25464035002808D0204600F023F8002801D0092028700020F8BD08202870204600F03CFFF7E7000064070020014610B528
:4043400040310A460978082906D0092907D00A2901D100F091F810BD0B20107010BD00F001F810BD70B50446007925464035052805D0062803D008280FD00C2070BD03221A
:404380000621204602F086F90D480821C28A2046FFF776FA1120287010E006202873204602F0A4F90646AA8A0A20424301212046FFF766FA002E01D109202071002070BDE6
:4043C0006407002038B504460020009068460AF0D3FD002801D00D2038BD2046009D00F08DF908202071204600F002FD2946204602F0FAF800213D2001550F2040210855B7
:40440000204600F0D3FE002038BD00B5024600F0B1FC10214032117000BD10B50446FEF7F7FF012809D04020005D112805D100231A4606212046FFF7BFFE10BD10B5FFF7B2
:4044400086FE10BD38B504460021684600910AF093FD00280CD12046009902F03CF905480821C28A2046FFF70BFA0D204034207038BD00006407002038B5044600216846C5
:4044800000910AF079FD002801D00D2038BD2046009902F015F905480821C28A2046FFF7EFF90C2040342070002038BD6407002000787047F8B50025002801D0002400E00D
:4044C0001A4C002C28D0204600F05DFC002823D0207903281CD005281CD026464036B18AA07801F079FCB078012815D10021204601F0B5FD274680373868002802D00AF0EB
:40450000A9FD3D600020B0702079072805D007E0042000E006202071F8BD2046FFF70EFD0221204600F05CFEF8BD0000D807002010B54C22115400F046F810BD10B5044674
:40454000FF21FFF7A8F909202071A07801F074FC10BD000038B5FF216A461180002801D0002400E0064C002C08D011460620FDF77FFF684601882046FFF73FFD38BD000030
:40458000D807002010B504468079002809D022214C200155FF212046FFF77DF9204600F012F810BD10B5037902464032002B03D01173092B02D003E0002100E022211173A1
:4045C00000F001F810BDFEB504460089002700902781207926464036002817D0012815D002280AD112E002AA01A9204601F008FD002807D101980AF023FD204601F028FDB0
:404600000028F0D02046FEF74BFEB776254680352868002802D00AF01DFD2F606868002802D00AF017FD6F60317B002915D0009800F047F8A078002100F01EFF2046FFF7AA
:40464000BDFAA07801F004F8A07800F0C3FC0B20FFF712F900F002FCFEBD1F213173E6E770B50E46054602F0C3FA044606702846FEF7CEFE014601204140204661700C3073
:4046800000F09FFF002D10D02889608028464030C1782171002E10D169796171018AE180418A2181808A608107E01820FDF7B8FEC005C00F207100206080204602F051FE89
:4046C00070BD0A4610B50146002002F041FF10BD10B50AF0C7F910BD00B50146FFF748FA002801D0002000E00348002802D002898A4200D0002000BDD807002038B504461A
:4047000080346068002806D168460AF045FC002801D100986060606838BD000010B5014600F03CFB0128887802D0FEF77BFE10BD88214843024940186030007F10BD0000EA
:40474000B807002070B5054604464035A87F012811D1A1788820084A484380186030067F3046FEF7ADFF002805D10220A877A078314601F021F870BDB807002010B50E4C94
:40478000E079002816D0FFF724F80C48827FC17F808B00F06BFB01280CD10020E07100F0BCFE0446AC20FDF73BFE010B02D0204600F00EFA10BD000068080020B8070020AE
:4047C00070477047490510B5490F0B00FDF7DCF9060704080C0C0F073E21FFF7A9FE10BD0821FFF7DFFE10BDFFF7EDFE10BDFFF7C9FE10BDF8B507460025002D01D00026B8
:4048000000E0204E00F064FE3046403044890021418100F067FE304600F0B5FA01282BD1A00702D52846FFF745FEE00602D52846FFF790FEA00601D5FEF7CBFF600601D568
:4048400000F0C8FA200602D5284600F01DF8600702D5284600F0FAF9380402D52846FFF751FB780402D52846FFF73EFBE00703D021463046FFF7A6FF6D1C2D062D0EBCD01F
:40488000F8BD0000D8070020F8B5002801D0002400E0204C002C39D025464035A878012834D1E98AA07801F0E1F92046FEF7B0FD01282BD002F0A0F92A8A6179FFF788F9B9
:4048C000064600F0FDFF2836B1B2204601F09CFFE98AA07801F0CAF9FF206130FDF7A0FD6E8A0D4F0146002E11D0304648430B49FCF7E6FF0004000C01D0401C80B278800F
:40490000288A704381B2A07801F058FAF8BD0020F5E70000D8070020860200207102000070B50D46124A010001D0002401E014462034002C1BD0204600F030FA01280AD1C5
:404940008820484380186030007FFEF7B9FE002801D101F055FE20464030817E491B8176204600F023FC2089294602F092FD70BDB807002070B503460088FFF7ADFE04008E
:4049800013D000F000FA00280FD02079092819D02546997840352973204601F0A7FE0646A878012803D0AA8A02E0022070BDEA880A20424301212046FEF762FF002E01D11B
:4049C00009202071002070BD0EB5002217216B460292198100905A810120029B00990AF0ABFB0EBDF8B5184E0024F079002820D10025AC20FDF714FD000B21E0204600F076
:404A000007FEFDF70DFD07462A46214600F02EFA01280FD00D48012187838577C477F171002D01D0002000E02030002801D000F0BDFBF8BDAC20FDF7F3FC000B641CE4B2A1
:404A40000028DBD1F8BD000068080020B807002010B50088FFF740FE002809D0014640310C460978082905D00B2903D00C2010BD022010BDFFF776FC002801D00920207022
:404A8000002010BD70B503460088FFF725FE040008D0254640352878082805D00B2803D00C2070BD022070BD8420005910220830991CFCF746FF2046FFF726FB287808284A
:404AC00004D02046FFF7D8FC002801D00A202870204600F06BFB002070BD000010B50C46002121700088FFF7F7FD03000BD000F04AF9002807D009481121807A0840C00618
:404B000003D4112010BD022010BD022020701A8A1889002102F038FD002010BD64070020F8B50F46002100910088FFF7D5FD040012D000F028F900280ED0E079410641D444
:404B4000617E02264A07002A08DB8907402500291ADA2843E07135E00220F8BD02F048F80021017021894180A1898180217E4170E189C1803E7005460178134802F06AFA9E
:404B8000284602F0A5FC1DE0204600F00DF9012806D068460AF0F0F9002803D00720F8BD2A20F8BDE07900992843E071204601F0C7FD607E0421304360760448C28A204622
:404BC000FEF75EFE0020F8BD1D040000640700203EB500220F236C460292238100910190628169460EC900200AF0A6FA3EBD000070B5054600F05CFA040021D00320207113
:404C0000254600264035EE76E6702046FFF706FA01F01AF80920FEF72FFEA07800F006FD0121204600F0DCFA2E706E70AE7000212046FFF715FD0449887B401C887370BDB4
:404C4000284601F0F9F870BDB807002010B5002801D0002400E00A4C002C0FD020464030417802290AD1002141702046FEF7D0FB002803D10221204600F0B2FA10BD00003A
:404C8000D807002070B503460D460088FFF724FD04000BD000F077F8002807D012481121807A0840C00603D4112070BD022070BD20464030418A008A491C41430804C10C53
:404CC0005888884201D2122070BD20822079072802D12046FFF732F9022028702089002102F07AFC002070BD64070020016A491C016204D1817E491C4906490E8176704790
:404D0000C169491CC16104D1C17E491C4906490EC176704770B500250646002801D0002400E0114C002C1CD0882200212046FCF711FEA670002026462071403630702046CB
:404D400000F018F8204601F07FF9084820820848B577807A1121084000D001202075012070BD002070BD0000D8070020B80B000064070020002101628176C161C1762030F0
:404D80000177417770470079002805D0012803D0022801D001207047002070474030807F002800D00120704740300078002807D0012805D0052803D00E2801D001207047ED
:404DC0000020704710B5807801F0EEF8002800D0012010BD10B500F0A0FB0446AC20FDF71FFB010B02D02046FFF7F2FE10BD000070B5054604464035A87F002823D1FF2066
:404E00006075A0788821144A484380186030417F8823491CC9B24177A078584380186030052901D300214177A0788821484380186030467F0677A1783046FEF741FC002873
:404E400002D00120A87770BD0220A877A078314600F0B2FC70BD0000B80700200020401C0006000EFBD0002070470000F0B515468207920F85B0C004C00E02926A46908002
:404E8000002D01D0002400E0514C002C29D0084600F0BEFB03906846808800280BD00298012845D0022843D003280CD03D20005D012872D086E00398FDF7B2FA014620465C
:404EC000FFF79BF87EE00020029002A80AF034F8002807D03D20005D012876D12046FFF705FF72E06846029E8388324600210398FDF70CFA0398FDF793FA01462046FFF728
:404F00007CF8284600F0B0FA01AA21463046FEF775FE002806D030460AF07EF83D204C21085528E0F5773146204601F0DBF94CE0002000902789684609F0EEFF002802D0CA
:404F4000002005B0F0BD6846009E8388321D00210398FDF7DBF90398FDF762FA01462046FFF74BF8284600F07FFA25464035287E00280CD103E02046FFF7E0FA25E001AA89
:404F800021463046029BFEF76DFE002806D030460AF038F83D202873EDE710E00298FFF73BF8390A000101433770717068468088B070000AF0703046FFF706FD05E02046F0
:404FC000FFF794FE284600F04FFA0120B9E70000D807002010B5044A917B002901D0491E9173FFF797FE10BDB8070020F8B5074606464037B87F00283DD0B078882100907D
:4050000048431F4945186035287F0099FEF76DFB012831D0287F401CC4B2052C00D300240020B877FF276F772F77A87702460146009800F041FD717DFF2903D0304600F05F
:40504000C4FF777501F0DCFA00252F462246694630460097FEF79AFF0099002902D03046FEF75BFB641CE4B2052C00D300246D1CEDB2052DEAD3F8BD0320B877F8BD000008
:40508000B807002010B502460021084B03E0002901D0002000E018460479944204D0491C0906090EF3D0002010BD0000D807002000B50120FFF7E6FF00BD10B5044601F086
:4050C00097FD2189018080346168416061682831816002F0B7F910BDF7B50646087982B00C46092807D0A078F0770846FFF756FE012806D010E0304609F0A2FF022005B06F
:40510000F0BDA1788820284A484380186030007FFEF7D6FA012810D0A078FEF777FE01280BD037780121304601F017FA25462035062F36D00B2F0FD107E06846027C214631
:405140003046FEF74DFF0D20D9E72046FEF760F9012801D1002028772046FFF7DFFA054604AA21463046FEF7B2FD01205F2108556946087C0090A07833463A46294600F03D
:40518000C7FA69460A7CA0780323294600F06CFEA0782946FEF770F8304609F051FF0020ADE70120D7E70000B807002010B502464032937F0021002B03D1927E002A00D022
:4051C0000121064AD279002A00D000210279092A00D10121807800F063FE10BD6808002070B50C460646FEF713F9002814D1012C0ED935464035A87800280DD1687802288B
:405200000AD03079092807D03046FFF7DBFD0446204600F080FD70BD0124F9E770B50D4601280BD0082808D1A8241146B020FDF7FDF829462046FDF7F9F870BD2020FAE7E7
:4052400010B501460820FDF7F1F810BD10B50446FF20F130012C01D1FF20D530002200F06AFE1020FDF7DCF80349A043088001461020FDF7DBF810BD8A02002010B50446EF
:405280001020FDF7CDF80449A043088001461020FDF7CCF810BD00008A02002010B50446012802D0082C07D102E0FF20D53001E0FF20F13000F034FE1020FDF7B1F804492C
:4052C0002043088001461020FDF7B0F810BD00008A02002010B504461020FDF7A1F804492043088001461020FDF7A0F810BD00008A020020F8B507460120B84085B2144613
:405300000E46012229467C2000F015FE32462946782000F010FE6078217800020143E078A5780002054360792679000206430C2047430D2080013C182046FDF777F8241D70
:4053400029462046FDF772F8201D3146FDF76EF8F8BD8B00034310B5D10191201943C000FDF764F810BD000070B505460C46407829780002014341200001FDF757F8E8787F
:40538000A978000201430A48FDF750F860782178000201438320C000FDF748F8E078A1780002014302480830FDF740F870BD00001404000070B50D46044681B20120800268
:4053C000FDF734F8210C0448FDF730F881202946C000FDF72BF870BD0404000070B5054600242846FDF71CF8641CA4B2102CF8D370BD10B50C460146B020FDF717F8FF2078
:4054000021462D30FDF712F810BD10B50C460146B020FDF70BF8204600F0B8FD0021FDF705F810BD70B50C46054600F005F821462846FFF7DEFF70BD10B50C460146B0201C
:40544000FCF7F4FFFF2021462930FCF7EFFF10BD10B50146B020FCF7E9FFFF20002220211D3000F068FD10BD010210B54D310020FCF7DCFF10BD000010B5040200290146D5
:4054800008D0B020FCF7D2FF214675310020FCF7CDFF10BDB020FCF7C9FF512000214001FCF7C4FF00210348FCF7C0FF21467631ECE70000240A000010B554210020FCF739
:4054C000B5FF10BD10B553210020FCF7AFFF10BD10B5034908884880FFF7D0FE10BD00008A02002010B502484088FFF7F3FE10BD8A02002010B5FDF77BF810BD10B5522156
:405500000020FCF793FF10BD10B504461820FCF787FF8004400F207010BD10B5B020FCF77FFFC0B210BDF8B50E4601461C461546B020FCF77BFFFF20E930FCF771FF07469A
:40554000FF200130FCF76CFF3080FF200930FCF767FF2880FF200530FCF762FF208079070698490F0170F8BD10B5C820FCF758FF10BD10B50C46002812D05820FCF750FFF1
:405580002070000A60705C20FCF74AFFA070000AE0706020FCF744FF2071000A607110BDFF20C130FCF73CFF2070000A6070FF20C530FCF735FFA070000AE070FF20C9300B
:4055C000E8E770B504466820FCF72AFF06466C20FCF726FF05467020FCF722FF2670310A6170A570290AE1702071000A607170BD10B50446012905D01820FCF711FFC00B02
:40560000207010BD4820FCF70BFF8007C00FF7E70120C002704710B50C460146B020FCF705FF0321A0014902401810BD8821074B414310B5C918FF2260314A770A77002245
:405640008A77114600F038FA10BD0000B807002088225043074A10B58018FF21603041770177002181770448418EFF201D3000F057FC10BDB80700206407002010B50C4608
:405680000146B020FCF7D2FEFF202530FCF7C8FE0222214600F002F810BD000010B50023884201D8081A03E00024E443201A4018044980B2884201D8824200D901231846F3
:4056C00010BD0000FF7F0000F8B503465078167800020643D07895780002054350791779000288240743002900D098241946B020FCF79CFE31462046FCF798FE201D294655
:40570000FCF794FE204608303946FCF78FFEF8BDFFB581B014460D4606460A9FFFF77BFF3B460021049AFCF761FE02484019845505B0F0BD8E02002070B506460D46112482
:405740002520A40108214001FCF770FE2B46324600212046FCF74AFE70BD70B5212405466401FFF7AFFE10232A4600212046FCF73DFE70BD10B504464078217800020143B4
:405780008F20C000FCF752FEE078A178000201430148FCF74BFE10BD7C04000010B50C460146B020FCF742FE802021460143FF202930FCF73BFE10BD70B50D460146B02002
:4057C000FCF734FEFF241D342046FCF729FE01090901FF202943013001432046FCF726FE70BDF8B500242646012807D0032802D0052808D105E002240A2604E004240C2619
:4058000001E004240D26492701463F013846FCF70DFE25204001FCF703FEC5B228462042F7D0252031464001FCF700FE00213846FCF7FCFD2846F8BD70B50D46044601468C
:405840001646B020FCF7F2FD512029464001FCF7EDFD31460648FCF7E9FD032189030820FFF71CFD210275310020FCF7DFFD70BD240A000070B50D4604460146B020FCF7B8
:40588000D5FDFF2029461930FCF7D0FD21024B310020FCF7CBFD70BD70B5491E8CB205460146B020FCF7C2FDFF2021461930FCF7BDFD29024C310020FCF7B8FD70BD0000E1
:4058C000054910B5884200D908460146FF206130FCF7ACFD10BD0000FF0F0000054910B5884200D908460146FF206530FCF79EFD10BD0000FF0F000070B588251446002979
:4059000000D098250146B020FCF790FD2846FCF787FD2070000A6070281DFCF781FDA070000AE07028460830FCF77AFD2071000A607170BD10B51446024611200B468001C1
:405940000021FCF73FFD012C01D1FFF7B5FD10BD10B504460920C001FCF762FD2070000A60700448FCF75CFDA070000AE070FFF7A3FD10BD840400000121814010B589B2DE
:4059800000227C2000F0D7FA10BD000070B5FF210120FFF75BFCFF210820FFF757FC3020FFF76CFC80210020FCF740FD002211460320FCF75DFD374DFF20A98DD530FCF7FE
:4059C00035FD0024FF26F1362146B020FCF72EFD298F3046FCF72AFD2046FFF739FE641C2406240EF0D0FF20A98FF930FCF71EFD28481030044600F073F9204600F0B8F94E
:405A000000F04CF8234CB82040346188FCF70EFDA188BC20FCF70AFDE188C420FCF706FDFF20698EE130FCF701FDA12000210001FCF7FCFC3920FFF74DFCFFF743FD9320E7
:405A40000721C000FCF7F2FCFFF736FDE020FFF7C5FCE820FFF7C2FCF020FFF7BFFC0020FEF7ACF8618A0C48FCF7E0FC0A482821001DFCF7DBFCFF210131AC20FCF7D6FCD4
:405A8000832000218000FCF7D1FC5B210020FCF7CDFC70BD64070020140A000010B500217C20FCF7C3FC00217820FCF7BFFC74210020FCF7BBFC10BD70B50D4601461446D4
:405AC000B020FCF7B3FCFF261D363046FCF7A8FC01090901FF20294301308143002C01D1102041403046FCF7A1FC70BDF3B589B0FF2001900D208001009048780D78000223
:405B00000543C8788E780002064348790979000201437C200791FCF783FC06907820FCF77FFC059074210020FCF780FC18480024049026E00120A04087B20098FCF770FCB9
:405B400003900098FCF76CFC02900098FCF768FC039A29465140029A72401143079A424011430BD10698074208D00598E040C1070998C90F814201D1019405E0641C0498A4
:405B8000E4B20078A042D5D801980BB0F0BD0000A407002070B5FF257C20FCF741FC0849002401230A7805E01946A140014205D0641CE4B2A242F7D8284670BD2546FBE75E
:405BC000A407002010B504461820FCF729FC0721C90288436107890C01431820FCF726FC10BD10B50446E020FFF7F8FB20782246401CC3B20021E020FCF7A4FB10BD000019
:405C000010B5044641790079042817D040000843A17B032901D8C9000843617B4A010243A079010207201143C00201431820FCF7FDFB21881C20FCF7F9FB10BD08460149F2
:405C4000E5E700000204000010B50120FFF716FB41210020FCF7EAFB10BD10B50120FFF739FB40210020FCF7E1FB10BD10B50C460146B020FCF7DAFBFF2021460D30FCF765
:405C8000D5FB10BD70B50C4601461E461546B020FCF7CCFBE92021468000FCF7C7FB75202946C000FCF7C2FBEB2031468000FCF7BDFB6C433B20A1B20001FCF7B7FB70BD4A
:405CC00070B50C4601461546B020FCF7AFFB21468420FCF7ABFB29468020FCF7A7FB70BD10B504464078217800020143FF20C130FCF79CFBE078A17800020143FF20C5309E
:405D0000FCF794FB6079217900020143FF20C930FCF78CFB10BD70B5A124054624012046FCF77EFB012D07D041084900814202D02046FCF77BFB70BD014601221143F5E7DB
:405D400010B5044640782178000201436820FCF76DFBE078A178000201436C20FCF766FB60792179000201437020FCF75FFB10BD10B5044640782178000201435820FCF78F
:405D800055FBE078A178000201435C20FCF74EFB60792179000201436020FCF747FB10BD10B50446E820FFF719FB20782246401CC3B20021E820FCF7C5FA10BD10B50C4638
:405DC0000146B020FCF732FB21460248FCF72EFB10BD00001C0A000010B50C460146B020FCF724FBFF2021460530FCF71FFB10BD70B5054688000521FBF772FC84B22946B4
:405E0000B020FCF713FB21460448FCF70FFB290272310020FCF70AFB70BD0000040A000010B504460146B020FCF700FB210273310020FCF7FBFA10BD10B504460146B020EA
:405E4000FCF7F4FA210270310020FCF7EFFA10BD10B504460146B020FCF7E8FA210271310020FCF7E3FA10BDF8B505461E4614460F46084600F08AF800902802A1000843C6
:405E8000304304462946B020FCF7D0FA21460098FCF7CCFA0148C0194655F8BD9302002070B50D460146B020FCF7C0FAFF241D342046FCF7B5FA40218843A9010143204612
:405EC000FCF7B4FA70BD70B5A124054624012046FCF7A6FA0222002D01D0104300E0904301462046FCF7A2FA70BD70B50D460146B020FCF79BFAFF2029460930FCF796FA8F
:405F0000A12424012046FCF78BFA0222002D01D0104300E0904301462046FCF787FA70BD70B50C460546FCF77BFA204301462846FCF77CFA70BDF8B516460D460746FCF7AF
:405F40006FFA014600202C0003D104E06408401C80B2E207FAD08640A9430E43B1B23846FCF764FAF8BD0000024A1018405C8007800F70479302002010B50146B020FCF775
:405F800055FAFF202D30FCF74BFA10BD8000FF30413070470246FF20052902D201484018805C70478E02002010B50146B020FCF73DFAFF202930FCF733FA10BD0A4600B57D
:405FC00001461046FFF7E6FF00BD38B50C46054600216846009108F0CFFF002804D1009928464C7000F09EFB38BD10B5044680780021FFF73BFE01212046FFF7F1F810BDF3
:40600000436E002B0CD00B60014660318B781370826E4266CA788A700021816608467047FF20704710B50346446E6033002C04D0846E002C04D0FF2010BD41669A7001E065
:406040008166DA70002010BD0021416681667047406E002801D000207047FF20704770B50446C0790D46810610D5DF210840E07100F0BEFD0570218941804034218A81809D
:40608000618AC180A18A018101F03EF970BD000010B50446FEF782FE01280AD1A1788820054A484380186030007FFDF709FB012801D000F0A5FA10BDB807002070B50D4643
:4060C0000446FDF7A5F901281CD02079042801D0072816D1E879AE7900020643A0783146FFF7CCFA012813D03246691C204600F035FA02212046FDF7D2FE01212046FFF78C
:406100006FF870BD01222421204600F0C3FA70BD28214C2001552046FEF710FA70BD70B50D460646FDF751FE002847D120213046FDF7B1FB3446687840346073E8782022A5
:406140000002E081A9780843E0816879010228790843218A814203D0F1791143F1712082E8790102A8790843618A814203D0F1791143F1716082687A0102287A0843A18ACC
:40618000E180814203D0F1791143F171A082A08A218A8000FBF7A4FA401E618A80B2814200D9608201213046FDF77CFEE87AA97A000201430022304600F0DCFA70BD00006C
:4061C000F8B50C460546FDF723F9012849D0294EB07AC00709D02846403000900078002805D0102805D01F212EE01A212CE0002700E001272846FEF781FA002823D02E46A1
:4062000080360822611C7068FBF79BFB7068617A20300172A17A417270682146183008220B31FBF78EFB21462846042213313430FBF787FB39462846FEF740F8002810D1BB
:40624000002F0FD012E007210322284600F022FAF28A08212846FDF713FB11212846FDF724FEF8BD06212846FDF722FE009801210176F8BD6407002010B5FEF75FF810BDDF
:4062800038B504460020009020790D46042801D007281BD12046FDF7BBF8012817D0684608F06AFE002811D10C486A78807A00991040112210402075607E0822104360765C
:4062C000204600F079F92046FDF735FE38BD08222421204600F0DEF938BD0000640700207047000070B506460D460846FEF7E0F804463046FEF747FD00280CD0142C04D38E
:406300002946304600F0C7F805E00549A0000A58294630469047284608F07EFE70BD00007017010070B50D460021002801D0002400E00C4C002C14D020464030C177807F36
:40634000032802D12046FEF751FE2046FFF7A0FE142D04D20449A800095820468847FEF77DFD70BDD8070020C017010010B5014640310C4609780E2903D1FEF723F80120DA
:40638000207610BD10B54021095C0F2901D1FEF73CF810BD4021095C0F2902D1002120304177704738B5044600220E4800920D46807A11210840C0060ED52046FEF7F4FC42
:4063C000012809D0684608F0D7FD002803D12046009900F053F938BD2946204600F05BF838BD00006407002010B51021FDF753FA10BD10B54978FDF731FF10BD10B5FEF728
:406400000CF810BD012120304177704710B54021095C0C2901D1FEF715F810BD10B54021095C0D2901D1FEF709F810BD70B5044600790D46052803D0062801D0082802D1B6
:406440002046FDF71DFF68784C21085509212046FDF72EFD2046FFF7C8FD2046FCF7D8FF0128A07805D0FFF7E7FC2046FEF79EFE70BDFFF7EDFCF8E710B50446FF21FDF708
:406480000AFA16214C200155A078FFF7D5FC2046FEF78CFE10BD70B50C460546FEF77EFC002802D02078687570BD21782846FFF78CFD70BD70B5054648780C46032802D14E
:4064C0002846FDF7E8FE6078122803D110212846FDF7E1F970BD704738B5044600200D46009004212046FDF7D6F968782076E8780002A081A9780843A08168790002E081CB
:4065000029790843E081607E04210843607680070CD4684608F030FD00281CD12046009900F00EF9607E022108436076E079410611D5BF210840E07100F05AFB002100908D
:40654000017021894180A1898180217E4170E189C18000F0BDFF38BD7047704770B50446C07815460A4600280AD00020E070C1B2A078FFF7A9F8A0782946FFF77BF970BD06
:406580000120F3E770B50546042008700C468420415908222031601CFBF7D3F929462046042238310930FBF7CCF90D2229462046FEF792FD002070BD70B5054609200C467B
:4065C000087008220021601CFBF7C4F9287D607004480922C07AA07029462046FEF77CFD002070BD640700200B4610B501460B20187001221846FEF76FFD002010BD00007D
:40660000FEB50024164F03E0002C01D0002500E03D462846FFF71CFD00281BD15F20405D002817D16A4601A92846FFF7E9FC002810D1019869460A7806782946FEF74CFD58
:40664000022E07D1A8780121FFF72AFC09212846FDF72EFC641C2406240ED5D0FEBD0000D807002010B50B46122119708178D977014601221846FEF72FFD10BD10B50B46DC
:40668000132119708178D977014601221846FEF723FD10BD38B50546002000900C46684608F06AFC002801D0072038BD00980D210170447002222946FEF70EFD002038BD3C
:4066C0000B4610B501460520187001221846FEF703FD002010BD0B4610B501460620187001221846FEF7F8FC002010BD38B5054600200090684608F03FFC002801D01F20CA
:4067000038BD009C022020704C20405D6070A878E0772846FFF769FC022229462046FEF7DBFC38BD10B50B46072119708178D977014602221846FEF7CFFC002010BD0000BD
:4067400010B50B460A49044608880C221A704A795A709870000AD870C8881871000A5871062221461846FEF7B7FC002010BD000064070020F8B50446403417460E46054617
:40678000E289617B8078FFF79BFA002F0DD100F033FAE2896979FDF71BFAFFF79FF8608A002800D00120FFF78EFBE388A08A984200D90346628A218AA878FFF763FAA08ABB
:4067C000218AC000FAF78CFF81B2ED208000FBF72DFEE089E188C0080A30081881B21920C001814200D90146A878FFF7F5FAA8783146FFF751F801212846FEF7F1FCF8BDCF
:4068000000B500F01FF800BD10B50A4604460B491046FAF765FF4034C01C218A80B2814200D208464900081A81B20548E182C089002802D0884200D2E08210BD71020000A2
:40684000A407002040184008704770B505460C46000702D5A0B2FDF7CDFFE80702D0200EFDF774F870BD70B5054650C8FCF734FDFBF756FC2889C01F0300FBF785F90C07C2
:40688000130B171A1D0B0B200B100C0BA0B23146FFF7DBFF70BD204600F048FB70BDFDF76DFF70BD2046FCF776FE70BDFCF791FF70BDFDF785FF70BDFDF783FF70BDE0B267
:4068C000FEF790F870BD0000F3B5002483B0064627460094019408200294FBF7A1FD05460640400713D55020FBF79AFDC0B20090700707D5009CA00803D1FBF777FC01280B
:4069000000D10127002204200099FEF787FC280755D5A820FBF784FD0146C207674804D0428907231B029A43428142890A434281002208200091FEF771FC300739D5009839
:40694000044340062CD5FF200930FBF769FDFF201D30FBF765FD8006C00F0190FF200930FBF75EFD00281BD00198002818D1544801214170FF20F130FBF752FD03210902B2
:4069800088430146FF20F130FBF750FDA1200001FBF746FD02210143A1200001FBF746FD00981021884303D1FBF720FC012800D101270098C00602D50220FBF76FFEA807F4
:4069C0000CD53820FBF72CFDC1B2B00702D508040443012700220220FEF720FCE8071DD02020FBF71DFDC0B20090F0070BD000980221000604430098884303D1FBF7F6FB54
:406A0000012800D101270098800702D50220FBF745FE002201200099FEF700FCE80605D50120FBF72BFE1020FEF70AFCA80628D5FEF79AFD234908800120FBF71FFE224925
:406A400000200870FF200930FBF7EAFC0090FF201D30FBF7E5FC80060099C00F00290DD000280BD116494870A1200001FBF7D8FC02210143A1200001FBF7D8FC2020FEF7C4
:406A8000DFFB680602D54020FEF7DAFB0720694608810020009601944881002F07D069460EC90498002804D0002008F021FB05B0F0BD002008F040FBF9E7000018080020ED
:406AC000860200209802002081020020F0B587B0054605A81E461746019100900C9C04AB06AA02A903A800F0C6F82846FEF735FE21463046FEF720FE6846017A0398FEF790
:406B000059FC05A904A8FEF72FFC6846027E21463846FEF71EFC07B0F0BD000070B50548C4782046FCF7F1FE05462046FDF77CF9284370BDB807002070B5054884782046A5
:406B4000FCF7EBFE05462046FDF786F9284370BDB8070020F8B5069E1F463478231FDDB23B460095FFF7B2FF3819001FFEF702FE0520FEF736FE0446012229460798FEF78B
:406B8000D9FE3570E00701D00020F8BD1F20F8BD70B51C4615460E46FEF7DFFD29463046FEF7CAFD0320FEF71CFE012229462046FEF7C0FE1F2070BDF8B5069D079E2C784E
:406BC0000094FFF783FF0120FEF70BFE0746002221463046FEF7AEFE3019FEF7B9FE241D2C70F80701D00020F8BD1F20F8BD0000004870477408002008B56A4600210B20BE
:406C0000FBF736FC6846007808BD000010B50B4C094923460833A160002142189278002A00D05A54491CC9B20429F6D3FF21A0689A314843A06010BD04030201B8070020FB
:406C400070B5059C049D2070060A6670060CA670000EE0704806D101400E0843207104221946601DFAF76DFE2046042229460930FAF767FE70BDF8B5079C0E46E178069DB2
:406C800009020160A77839430902016067783943090201602778394301602079611D4006400E30702079C009107004221846FAF748FE2146042209312846FAF742FEF8BD1B
:406CC00010B5FEF751FC084A916848408108C3084409414063405940C30F59404008C9070843906010BD0000B807002010B5012200F016F810BD000010B505480278012191
:406D0000002A017002D10120FBF7D2F8002010BD9C02002010B5002200F002F810BD0000F8B5204D0F4629781646012904D02978022901D01120F8BD0C2148431A4944185B
:406D4000E078A178884201D31220F8BDFAF7E4FB62780C2361685A4351188CCF8CC1E178601C491CE1706178491CC9B20170A278914201D1002101706868401C6860287833
:406D8000012803D0FAF7C4FB0020F8BD02202870FAF7BEFB002E03D00020FBF789F8F3E70120FAE79C020020F409002010B51148002101704160C0220F48FAF7CBFD0E480A
:406DC00090220021C030FAF7C5FD182200210B48FAF7C0FD0948102181700C21817306494160C03101610649816006494161FBF747F810BD9C020020A4080020F409002024
:406E000067680000B57D0000F8B50025114C01262F462078002811D001280FD0022802D0032813D111E000F017F8FAF775FB6068002800D12670FAF76BFB07E0207800282C
:406E400006D02078012803D000E02770002DE0D00020F8BD9C020020FEB51F4D1F4E0027FF2400200C2141438919C978002901D0044602E0401C0228F4D3FF2C2AD0FAF7AE
:406E80004BFB0C204443A41921780C2260685143081801460EC9029301920091076047608760E078401EE0702078401CC0B22070A178884200D127706868002802D068682C
:406EC000401E6860FAF724FBA1680029C8D068468847C5E7FEBD00009C020020F409002010B5830A082B02D008F02CF910BD00F0CFF810BD10B50C460146207800F042FCEA
:406F00000028204603D000F007FF002010BD00F0B8FB1F2010BD10B5820A082A02D008F0BFF910BD00F056F910BD0000F8B504464078257800020543002069460870284635
:406F4000FFF7E9FF012827D16946A0780978884222D01C498D4208D0891D8D4205D0C91C8D4202D0C91C8D4204D11221284600F071F80CE00022022805D32079E1780002AB
:406F800001430A05120D12212846FFF7A9FF204608F01AF81220F8BD0B4EA80A08282A4631460AD0E01C08F0C5F9204608F00CF83146284600F00AF8F8BDE01C00F018F930
:406FC000F3E700000D2000000C0A0020F8B50D4604460020694608701A48844208D0801D844205D0C01C844202D0C01C844201D101200870A00A08280A462946204609D032
:4070000008F0EAF9064668460078002805D0012815D110E000F006F9F4E70022002D05D068782978000201430A05120D31462046FFF756FF03E03146204600F00BF83046D3
:40704000F8BD00000D2000000148407A7047000068080020F8B5054600200E4600906946082000F007FB002801D00720F8BD009C0F202070A670FFF7E7FFE0702571280AE5
:407080006071042060702146FF20FFF733FFF8BDF7B5064682B000204B4A4C4B00900420B11AF718964218D008DC002F0FD0012F0FD0052F0FD00D2F12D10CE0032908D0C1
:4070C00005290CD006290AD0072909D101E0072006E00C2004E0052002E00B2000E006206946001D00F0C6FA002802D0072005B0F0BD009D31462846039A00F085F8334837
:4071000004241338301803D0052801D0062805D10499A9710499090AE9710624039800284BD12949891F701A8E4227D006DC002F0BD0012F11D0052F3FD11CE0062823D02C
:4071400009282CD00D2838D12FE028191B2181700021C170A41C042012E02E19B01C08220021FAF7F7FB1A481122817A1140B170C07AF07020E0FCF723F901E0FCF742F904
:4071800029198870641C18E02919891C0498FCF727F9002801D068710FE0641D0DE02819801C082107F05EFC06E009492819801C08221C31FAF7C5FB08346C702946FF201E
:4071C000FFF798FE93E7000015200000FEDFFFFF64070020C0B21F2806D8401E034AC0B2105C0870012070470020704784190100D2B21F2A05D8034B9200D218403AD26BDE
:40720000104770478C18010070B504460E2016460D462070FFF718FFA070E570280A2071667170BD70B50D46C1B2012014461F2911D88E000848214630184038C26B28464F
