:400000000040002011000000390C0000390C000080B500AF00F03CFE80B582B000AF3D4B12221A6001F016FC3B4B181C01F0ACFA012001F01FFC0C2001F0B6FA374B384A19
:400040001A60384B8022D2051A60374B364A126802210A431A60354B354A1A60354B354A126808218A431A60FA23DB00181C01F0E7FA021CFB1D1A70FB1D1B78002B02D062
:40008000012000F099FE2C4B181C01F087FB2B4BB82252011A602A4B2A4A1A602A4B2B4A1A60274B2A4A1A602A4B802252011A60234B294A1A60294B802252001A60204BAA
:4000C000274A1A60274B02221A60274B802212061A60264B42221A60254B42221A60254B43221A60244B41221A60244B40221A60234B0820191C01F0E9FA082001F00CFB1D
:40010000084B8022D2051A60024B11221A60BD4602B080BD30001040001BB70004010B40060000800C020B4078002E407C002E402D3E00006CF02E40DC05000008030140DA
:400140000000014042FF00800C030140005F090043FF00800403014041FF00800003014040FF008000010B4008010B402C010140200101401C01014008010140040101409A
:40018000C519000080B582B000AF72B64E4B00221A60FB1D00221A7023E0FB1D1A78131C5B009B185B00494A9B183B603B681A78597809020A43997809040A43DB781B06C7
:4001C0001343191C3B681A795B791B0213439BB2081C191C00F0E0FDFB1D1A78FB1D01321A70FB1D1B78012BD7D9394A394B101C191C00F0EDFD384B802252001A80374BA9
:4002000001221A70364B374A1A60374B374A1A60374B384A1A60384B992212041A60374B992212041A60364B364A1A60364B992212041A60354B992212041A60344B8022CC
:4002400012051A60334A334B1B78DBB202210B43DBB21370304A304B1B78DBB23C218B43DBB214210B43DBB213702A4A294B1B78DBB216210B43DBB21370284BD2221A6073
:40028000274B284A1A60284BD2221A60274B17221A60274B274A1A60274B40221A60274BC02252031A60264BE1221A60254B264A1A60264BC02212011A60FFF7ADFE00F053
:4002C000C7FDBD4602B080BD6CF02E40F4280100002901002029010000600F4002600F40000002409000FFFF0001024033030300000302400800090000500F4010500F409D
:4003000018500F4000000D0320500F4030500F4034500F4000700F4001700F40000004400800044030E0D800180004400001044008010440B6610000000204400802044005
:4003400000030440080304400610D9000C03044010B5064C2378002B07D1054B002B02D0044800E000BF0123237010BD88040020000000000828010008B5084B002B03D049
:400380000748084900E000BF07480368002B00D108BD064B002BFBD09847F9E700000000082801008C040020C80000200000000080B500AF01F0D2FB031E08D101F036FDF4
:4003C000042001F079FD094B01221A700AE0002001F072FD054B02221A7001F039FD044B00221A6001F0C8FBBD4680BD741300207C13002080B582B000AF084B1B685A1C4B
:40040000064B1A6001F014FF031C7B607B68181C01F018FFBD4602B080BDC0467C13002080B582B000AF00F09FF8404B181C01F03DFB3F4B181C01F011FF62B601F0CCFB19
:400440003C4B181C01F04AFC3A4B181C01F046FC394B181C01F042FC384B00221A70384B181C342100F074F9354B181C34210E2200F008F900F088FA02F083FE2F4B1B7803
:40048000042B4ED89A002F4BD3181B689F462E4B00221A6000F042F946E001F073FE2A4B1A682A4B5200D35A1A1E294B1B689A4226D2284B181C01F011FC234B1B682649C5
:4004C000264A081C111C1A1C02F058FA224B181C01F004FC1C4B1968BB1D214A49008A5A1A80BB1D1B881C491E4A081C111C1A1C02F044FA184B181C01F0F0FB00F0F2F8F1
:40050000114B1B680A2B03DD0C4B03221A700BE00AE0FA239B00181C01F01CF901F07AFD02E0C046A8E7C046A6E7C046B1030000F5030000802801008428010074130020D9
:40054000E4130020E028010078130020CC1300207C1300209828010080130020B0280100B4130020C028010080B500AF62B6034B181C00F09DFCBD4680BDC0468105000012
:4005800080B584B000AF786039607B68272B1DD004D8012B09D0262B0BD06AE0422B61D04C2B24D0282B0DD063E0002000F0EEFC5FE0314B1B78042B03D1002000F0E6FC80
:4005C00057E056E0002000F0E1FC52E02B4BFA2251001A785B781B021A4300231204120C1B0C1B041343181C0CF0DEFC41E03B68BB60BB689B890E2B25D10023FB600CE0F1
:40060000BB685A68FB68D31819781D4AFB68D3180A1C1A70FB680133FB60FB68332BEFDD002001F075FB164B181C342100F0BCF8134B181C34210E2200F024F800F0A4F953
:40064000012001F065FB0D4B1A785B781B021A4300231204120C1B0C1B041343181C0DF01DF806E0064B181C34210E2200F00AF8C046BD4604B080BD722800207828002042
:40068000E413002080B586B000AF7860081C111CFB1C021C1A703B1C0A1C1A80002001F05BFB0C23FB183A1C12881A810C23FB187A681A60FB1C1B789AB20C23FB189A80E6
:4006C0000C23FA18064B101C00211A1C00230DF017FD012001F040FBBD4606B080BDC0467828002080B500AF01F01CFC084B1A68084B5200D35A181C01F0C8FC044B1B6859
:400700005A1C034B1A60044B00221A60BD4680BD78130020B41300207C13002080B582B000AF0A4B1B7F9AB2084B5B7F1B029BB213439AB2BB1D1A8001F0F4FBBB1D1B88B8
:40074000181C01F0A3FCBD4602B080BDE413002080B584B000AF78600A1CBB1C1A80114BFB600A23FB1800221A8011E00A23FB181B887A68D318FA6812781A70FB680133C4
:40078000FB600A23FB181A880A23FB1801321A800A23FA18BB1C12881B889A42E6D3BD4604B080BD00F2FF0F80B5A4B000AF78600A1CBB1C1A808E23FB1800221A8035E0D7
:4007C0008E23FB181A888E23FB181B889B007968CB181B78181C8E23FB181B889B0001337968CB181B781B02011C19438E23FB181B889B0002337868C3181B781B041943E3
:400800008E23FB181B889B0003337868C3181B781B060B43191C0C23FB189200D1508E23FB181A888E23FB1801321A80BB1C1B889B089BB28E22BA1812889A42C0D30C237E
:40084000FB180020191C00F003F8BD4624B080BD80B5ACB000AF021C3960FB1D1A700023A822BA1813603A4B1B68FB61394B1B68BB61394B1B687B61384B1B683B61384BB7
:400880001B68FB60374B1B68BB60374B374A1A60374B384A1A602023FB18374A1A602023FB187F225A60AF23FB1800221A7015E0AF23FB181B789A1CAF23FB181B789B0076
:4008C0003968CB1819682023FB189200D150AF23FB181A78AF23FB1801321A70AF23FB181B781F2BE4D9204B2022BA181A60204B224A1A602023FB18214A1A60FB1D1A7823
:400900002023FB185A60184B2022BA181A60184B1C4A1A60144B1B68A822BA1813600C4BFA691A600B4BBA691A600B4B7A691A600A4B3A691A600A4BFA681A60094BBA688F
:400940001A60A823FB181B68181CBD462CB080BD00010B4008010B401CFF0B4020FF0B4028FF0B402CFF0B4008001040B6E800000400104015000080B6D700000400008004
:40098000B6EB00001800008080B582B000AFA74B9B799AB2A54BDB791B029BB213439BB29AB2A34B1A80A14B1B7A9AB29F4B5B7A1B029BB213439BB29AB29D4B5A809B4BE4
:4009C0009B7A9AB2994BDB7A1B029BB213439BB29AB2974B9A80954B1B7B9AB2934B5B7B1B029BB213439BB29AB2914BDA808F4B9B7B9AB28D4BDB7B1B029BB213439BB28C
:400A00009AB28B4B1A81894B1B7C9AB2874B5B7C1B029BB213439BB29AB2854B5A81834B9B7C9AB2814BDB7C1B029BB213439BB29AB27F4B9A817D4B1B7D9AB27B4B5B7DB9
:400A40001B029BB213439BB29AB2794BDA81774B9B7D9AB2754BDB7D1B029BB213439BB29AB2734B1A82714B1B7E9AB26F4B5B7E1B029BB213439BB29AB26D4B5A826B4B36
:400A80009B7E9AB2694BDB7E1B029BB213439BB29AB2674B9A82654B9B7F9AB2634BDB7F1B029BB213439BB29AB2624B1A805F4B20229B5C99B25D4B21229B5C1B029BB265
:400AC0000A1C13439BB29AB25A4B5A80574B22229B5C99B2554B23229B5C1B029BB20A1C13439BB29AB2534B9A80504B24229B5C99B24E4B25229B5C1B029BB20A1C134347
:400B00009BB29AB24B4BDA80484B26229B5C99B2464B27229B5C1B029BB20A1C13439BB29AB2444B1A81414B28229B5C99B23F4B29229B5C1B029BB20A1C13439BB29AB232
:400B40003C4B5A81394B2A229B5C99B2374B2B229B5C1B029BB20A1C13439BB29AB2354B9A81324B2C229B5C99B2304B2D229B5C1B029BB20A1C13439BB29AB22D4BDA8101
:400B80002A4B2E229B5C99B2284B2F229B5C1B029BB20A1C13439BB29AB2264B1A82234B30229B5C99B2214B31229B5C1B029BB20A1C13439BB29AB21E4B5A821B4B3222B1
:400BC0009B5C99B2194B33229B5C1B029BB20A1C13439BB29AB2174B9A8200233B6000237B600AE0124B7A685200D35A1A1C3B689B183B607B6801337B607B68092BF1DDA4
:400C00000B4B9B8A1A1E3B689A4208DD084B9A8A3B689BB2D31A9AB2054B9A8202E0044B00229A82BD4602B080BDC046E4130020CC130020B413002080B500AFFEE7C0465E
:400C400080B584B000AF78600F4B1A687B68D3181A1C0E4BD31A802B09DC0B4B1B68FB60094B1A687B68D218074B1A6007E001F039FE031C0C221A6001235B42FB60FB68D6
:400C8000181CBD4604B080BDCC0000208028002080B586B000AF224B7B61224B3B61204B7B6135E03B691B68FB603B695B68BB603B699B683B6000237B600CE0FB681A687B
:400CC000BB681A60BB680433BB60FB680433FB607B6804337B607A683B689A42EED13B69DB683B6000237B6008E0BB6800221A60BB680433BB607B6804337B607A683B68C2
:400D00009A42F2D13B6910333B617B69013B7B617B69002BC6D101F0EBFDFFF781FBFEE701000000A830010080B582B000AF154B144A126801218A431A6000237B600FE041
:400D40007B68032B04D8104B7A689200D35800E00E4B0F4A796889008B507B6801337B607B682F2BECD9FFF70DFA0A4B00221A60044B044A126801210A431A60BD4602B01E
:400D800080BDC0460000104000000000390C000000000020C000002080B582B000AF786039607A683B68101C00211A1C01F0DEFDBD4602B080BDC04680B582B000AF021CD4
:400DC000FB1D1A70FB1DFA1D12781A70FEE7C04680B586B000AF7860396000233B6100237B612FE07B699B007A68D3181B68BB600F23FB18BA681A70BB68FF229343BB60BB
:400E000018E03B695B003A68D3181B781A1CBB68D318191C3B695B003A68D3185B780B703B6901333B610F23FB181A780F23FB18013A1A700F23FB181B78002BE1D17B695A
:400E400001337B617B69072BCCD9BD4606B080BD80B500AF054B03221A60054B03221A60044B00221A60BD4680BDC0463000304030003140000E3F4080B500AF064B002299
:400E80001A70064B00221A70054B00221A7000F009F8BD4680BDC0467B280020742800207A28002080B500AF00F068FBBD4680BDF0B58FB004AF78602623FB1800221A8039
:400EC0000C23FA18284B111C1A1C1823081C111C1A1C01F042FD254B1B78002B04D1FFF7CBFF224B01221A707B68002B30D02623FB181B88002B2FD12623FC181C491D4AAB
:400F00001D4E0C23FD18062300931C4B01936E23FF330293081C111C321C2B1C02F048F9031C2380164B7A681A602623FB181B88002B11D1134B01221A702623FC18124B8A
:400F4000181C0F2134220DF0C3F8031C238003E02623FB1801221A802623FB181B88181CBD460BB0F0BDC046702C0100A4040020BD120000201400205014000080370100F9
:400F80001814002072280020282D010090B585B000AF021CFB1D1A70FB1D1B78022B04D90E23FB1801221A804BE0294B1B78042B42D1284B1B78DBB21A1C042313403BD173
:400FC000FB1D1B78002B0BD1234B3C221A82224B5B6880221A80204B5B68A0225A8010E0FB1D1B78012B0CD11B4B96221A821A4B5B68C822D2001A80174B5B688022D2012B
:401000005A80164BFA1D12781A700E23FC18124B181C0BF0A9F9031C23800E23FB181B88002B08D10B4B1B78DBB204221343DAB2084B1A7005E004E00E23FB180422FF326B
:401040001A800E23FB181B88181CBD4605B090BD722800207B280020200100207A28002080B584B000AF78600A1CFB1C1A700023BB60BB68002B20D07B689A79BB681A7060
:401080000F23FB1800221A7012E00F23FB181B780133BA68D3180F22BA18127879688A5C1A700F23FB181A780F23FB1801321A700F23FB181B78052BE7D9BD4604B080BDC1
:4010C00080B582B000AF78607B681B789AB27B6801331B789BB21B029BB213439BB2181CBD4602B080BDC04690B585B000AF78600F23FB1800221A707B689B890B22934215
:4011000037D17B681A1D7B680F217C18101C00211A1C40230CF0F4FF031C23700F23FB181B78002B1DD17B685B68181CFFF7C8FF031C1A1C022313409BB2002B08D0104B5F
:401140001B68822251007A68081C111C984708E00B4B1B680622FF32111C7A68081C111C9847084B1B78DBB201229343DAB2054B1A700F23FB181B78181CBD4605B090BDA9
:40118000181400207B28002090B585B000AF78600F23FC187B68181CFFF7A6FF031C2370144B1B78DBB21A1C012313401FD10F23FB181B78002B16D00823FB1812229A70F4
:4011C0007B689A890823FB181A800823FB180F22BA181278DA707B680822BA181868111C0CF0F6F903E07B6818680CF057FABD4605B090BD7B28002080B582B000AF78603C
:40120000BD4602B080BDC04680B500AF034B00225A70024B00221A70BD4680BD7828002080B582B000AF7860BD4602B080BDC04680B500AFBD4680BD80B584B000AF7860A5
:401240000E23FB1800221A707B689B79002B1CD10F23FB1800221A7012E00F23FB181B787A68D35C002B04D00E23FB1801221A700BE00F23FB181A780F23FB1801321A70EF
:401280000F23FB181B78052BE7D90E23FB181B78181CBD4604B080BD80B582B000AF021CBB1D1A80BD4602B080BDC04680B582B000AF7860BD4602B080BDC04680B584B07A
:4012C00000AF021C3960FB1D1A709E4B1B78DBB201221343DAB29B4B1A70FB1D1B78712B00D914E19A00984BD3181B689F460C23FB1807221A700C23FB1800225A700C2331
:40130000FB18181C03F099FB0C23FB1807221A700C23FB1801225A700C23FB18181C03F08CFB8A4B1B68181CFFF786FF031E11D0864B1B68181C01F029FF844B1B68181C9B
:401340000021FFF78DFE814B1B68181C0121FFF787FE19E07E4B1A787E4B1A707E4B1A787C4B5A707D4B1A787A4B9A70794B181C01F00CFF774B181C0021FFF771FE754BBF
:40138000181C0121FFF76CFE03200AF0AFFE744B04221A70BCE03B68181CFFF741FFB7E03B681A786F4B1A70B2E0664B1B78DBB21A1C202313400ED16B4B1B78102B02D120
:4013C000694B0522DA70694B1A78674B101C191C0AF094FF9CE09BE03B68181CFFF766FF96E03B68181CFFF761FF5D4B02221A708EE05B4B04221A708AE0594B1B78022B2E
:4014000034D0504B1B78DBB21A1C012313402DD04C4B1B78DBB21A1C042313400BD0504B03221A70474B1B78DBB204229343DAB2444B1A701AE0434B1B78DBB21A1C08235B
:4014400013400BD0464B04221A703E4B1B78DBB208229343DAB23B4B1A7007E0404B1B78032B03D13E4B04221A7051E050E03B681B88181CFFF710FF4AE03C4A3B68111C18
:401480001A1C0223081C111C1A1C01F066FA374B1B78B4335A00364BD3180533354A111C1A1C0223081C111C1A1C01F056FAFFF7BFFE2DE0FFF7A8FE2AE03B685A88F4232E
:4014C000FF339A4205D80E23FB183A6852881A8004E00E23FB18FA2252001A803B680E22BA1811881A8800231204120C1B0C1B041343181C0CF078F80AE03B68181CFFF74D
:4015000043FE05E03B68181CFFF776FE00E0C0460C4B1B78DBB21A1C112313400FD0094B1B78DBB201229343DAB2064B1A70124B1B68FA1D11783A68081C111C9847BD4622
:4015400004B080BD7B280020542E01003C0100207CF1FF0F340100207DF1FF0F7BF1FF0F7228002074280020E40100207828002080370100702800201814002080B500AF36
:40158000BD4680BD000000000230800803D00138FDD1C046C046C0467047EFF3108072B6704780F31088704790B58BB000AF78602723FC18FFF7F1FF031C2370184B1A6899
:4015C0000C23FB181A60174B1A680C23FB185A607B68033B144AD35C1A1C0C23FB189A60124B1A680C23FB18DA601C23FB18104A1A600C23FA181C23FB185A600D4B1C22CB
:40160000BA181A600C4B0D4A1A600A4B1B682723FB181B78181CFFF7C4FFBD460BB090BD08010B4000010B401C30010030001040B6EA000008001040040010401700008026
:4016400080B584B000AF78600023FB60154B154A126801210A431A60134B144A1A60144B134A1268802109020A431A607B68002B12D01023FB600CE0012000F08FF800F009
:4016800019F8031E02D00023FB6005E07B68013B7B607B68002BEFD1FB68181CBD4604B080BDC04660F02E4078002E400220000010002E4080B500AF034B1B6801221340FB
:4016C000181CBD4680BDC0460C002E4080B584B000AF021C3960FB1D1A7080239B05FB60FB1D1B781F2B02D9002000F029F8FB1D1B7810339B00FA68D3181B68BB60FB1D5A
:401700001B7810339B00FA68D3183A681A60BB68181CBD4604B080BD80B582B000AF021CFB1D1A70054BFA1D12781F210A40012191400A1C1A60BD4602B080BD00E100E0ED
:4017400080B582B000AF021CFB1D1A7001BEBD4602B080BD80B582B000AF786009E00C4B1B68181CFFF710FF7B680A4A944663447B607A6880231B029A42F0D8064B1B684B
:401780007A685343181CFFF7FFFEBD4602B080BDF40100200080FFFFEC01002080B582B000AF021CBB1D1A80BB1D1B88044A12785343181CFFF7E8FEBD4602B080BDC04661
:4017C000F001002080B500AF0E4B0E4A126801218A431A600B4B0B4A126802218A431A60094B094A126830218A4310210A431A60054B054A126807218A4301210A431A60A3
:40180000BD4680BD00F02E4000FF2E4080B500AF0E4B0E4A126802218A431A600C4B0C4A126807218A4302210A431A60084B084A126830218A4320210A431A60034B034A3E
:40184000126801210A431A60BD4680BD00F02E4000FF2E4080B500AFFFF7B4FF044B044A1268802109060A431A60BD4680BDC04600F02E4080B584B000AF78600C4B1B6871
:4018800001221340FB607B68002B02D0012B03D005E0FFF797FF06E0FFF7B8FF03E00020FFF74EFFC046FB68181CBD4604B080BD00F02E4090B583B000AFFC1DFFF76DFE9E
:4018C000031C2370074B074A1268C02109020A431A60FB1D1B78181CFFF763FEBD4603B090BDC04600010B4080B500AF054B1A68C0231B02134001D0012300E00023181CA6
:40190000BD4680BD00010B4090B583B000AFFC1DFFF743FE031C23700C4B0C4A12680C490A408021C9010A431A60084B074A126807490A40802109020A431A60FB1D1B7824
:40194000181CFFF72EFEBD4603B090BD00010B40FF3FFFFF90B585B000AF78600B23FC18FFF71BFE031C2370FFF7BEFF031E04D00123FB60FFF7C8FF01E00023FB607B685C
:401980000D4A13407B600D4B0C4A12680C4911407A680A431A60094B1B68FB68012B01D1FFF788FF0B23FB181B78181CFFF7F9FDBD4605B090BDC0460404040010020B400E
:4019C000FBFBFBFF80B500AF334B1B68042213401FD0324B1B680422134017D0304B1B6804221340DA432D4B1B681A402B4B1A602B4B1B68042293431A1C294B1A60294BE4
:401A00001B68002B02D0274B1B6898470420FFF7A1FF214B1A688023DB00134022D01F4B1A688023DB00134017D01D4B1A688023DB001340DA43194B1B681A40174B1A604E
:401A4000174B1B68184A1A40154B1A60154B5B68002B02D0134B5B6898478023DB00181CFFF778FF0C4B1A688023DB02134011D00A4B1A688023DB02134006D0094B9B6848
:401A8000002B02D0074B9B6898478023DB02181CFFF760FFBD4680BD10020B40F8010020B0040020B4040020FFFBFFFF80B582B000AF786000F048F87B68181C00F008F86D
:401AC000032000F011F800F035F8BD4602B080BD80B582B000AF7860024B7A68DA64BD4602B080BD0000002090B585B000AF021CFB1D1A701E23FB600B23FC18FFF74DFD47
:401B0000031C23700A4B0A4A126892009108FA1D1078FA689040021C0A431A600B23FB181B78181CFFF73DFDBD4605B090BDC04600E400E080B500AF024B08221A60BD4610
:401B400080BDC04600E100E080B500AF024B08221A60BD4680BDC04680E100E080B500AF044B1B68202213405B09DBB2181CBD4680BDC0460403044080B582B000AF094B9A
:401B80001B68DAB2FB1D20210A401A70054BFA1D12781A60FB1D1B785B09DBB2181CBD4602B080BD1003044080B500AF00F030F8BD4680BD80B500AF064B064A1268802189
:401BC00009060A431A6000F019F800F01BF8BD4680BDC0460000254080B500AF064B1B78002B04D1FFF7E0FF034B01221A70FFF7E1FFBD4680BDC046C404002080B500AFE0
:401C0000BD4680BD80B500AF00F05AF8BD4680BD80B500AF184B194A1A60194B00221A60184B01221A60184B184A1A60184B07221A60184B00221A60174B01221A60174B35
:401C4000124A1A60164B00221A60164B04221A60154B00221A60154B00221A60144B00221A60144B00221A60134B00221A60134B00221A60BD4680BD000025400B000002FC
:401C800040002540480025400003254007000080040325401003254044002540000225400402254050002540880E2540C80E2540480F2540080F2540C80F2540880F254029
:401CC00080B500AF044B044A1268F0218A4390210A431A60BD4680BD0000024080B584B000AF78600023FB6009E07A68FB68D3181B78181C00F00EFBFB680133FB607A68F6
:401D0000FB68D3181B78002BEFD1BD4604B080BD80B584B000AF021CFB1D1A700D4B1B68DAB20F23FB187F210A401A70FB1D1B78DB01D9B20F23FB180F22BA1812780A43BA
:401D40001A70044B0F22BA1812781A60BD4604B080BDC0460003044080B584B000AF021CFB1D1A700E4B1B68DAB20F23FB1840218A431A70FB1D1B789B01DBB2402213407C
:401D8000D9B20F23FB180F22BA1812780A431A70034B0F22BA1812781A60BD4604B080BD0002044080B500AF0F4B8022D2041A600D4B0D4A12681A60002000F061F80A4BCF
:401DC000094A12681A60094B0C221A60012000F09DF8074B31221A60082000F05FF8042000F06AF8BD4680BD00012040240120402801204090B583B000AFFC1DFFF7CDFB49
:401E0000031C2370084B084A126801210A431A60FB1D1B78181CFFF7C4FB0120182100F059F8BD4603B090BD0000204080B500AF064B1B78002B04D1FFF7B4FF034B012274
:401E40001A70FFF7D7FFBD4680BDC046C504002090B583B000AFFC1DFFF79FFB031C2370064B064A126801218A431A60FB1D1B78181CFFF796FBBD4603B090BD000020400E
:401E800080B582B000AF7860034B7A681204120C1A60BD4602B080BD0801204080B582B000AF7860034B7A681204120C1A60BD4602B080BD1401204080B582B000AF7860DA
:401EC000034B7A681204120C1A60BD4602B080BD0C01204090B585B000AF786039600F23FC18FFF75AFB031C2370074B3A68796891400A1C1A600F23FB181B78181CFFF780
:401F000050FBBD4605B090BD0800204080B582B000AF7860024B7A681A60BD4602B080BD3801204080B500AF064B1B78002B04D100F00AF8034B01221A7000F05BF8BD46CC
:401F400080BDC046C604002090B583B000AF244B1B78DAB2FB1D3F218A431A70204AFB1D1B7809210B43DBB213701E4A1D4B1B78DBB201210B43DBB213701B4A1A4B1B7846
:401F8000DBB201210B43DBB21370184B181C00F04FF8164B181C00F069F8154B181C00F075F8134B181C00F081F8002000F08EF8BC1DFFF7F2FA031C23700B4A0A4B1B7834
:401FC000DBB210210B43DBB21370BB1D1B78181CFFF7E7FA00F03CF8BD4603B090BDC04673000F4092000F4093000F400F270000DC05000080B500AF0549054B1B78DBB2E4
:40200000802252421343DBB20B70BD4680BDC04673000F4080B500AF044A044B1B78DBB27F210B40DBB21370BD4680BD73000F4080B582B000AF021CBB1D1A80034ABB1D9B
:402040001B881380BD4602B080BDC04604100F4080B500AF01E000F053F800F047F8031C1A1C10231340F6D1BD4680BD80B582B000AF021CBB1D1A80034ABB1D1B881380BD
:40208000BD4602B080BDC04684100F4080B582B000AF021CBB1D1A80034ABB1D1B881380BD4602B080BDC04644100F4080B582B000AF021CBB1D1A80034ABB1D1B881380A8
:4020C000BD4602B080BDC04664100F4080B582B000AF021CFB1D1A70034AFB1D1B781370BD4602B080BDC04683000F4080B500AF024B1B78DBB2181CBD4680BD63000F4093
:4021000080B500AF024B1B889BB2181CBD4680BDA4100F4080B500AF094B802292041A60084B0C221A60012000F076F8064B181C00F048F8002000F037F8BD4680BDC04669
:4021400040012040640120401027000090B583B000AFFC1DFFF721FA031C2370084B084A126802210A431A60FB1D1B78181CFFF718FA0220182100F033F8BD4603B090BD56
:402180000000204080B500AF064B1B78002B04D1FFF7C0FF034B01221A70FFF7D7FFBD4680BDC046C704002080B582B000AF7860034B7A681204120C1A60BD4602B080BD8C
:4021C0004801204080B582B000AF7860034B7A681204120C1A60BD4602B080BD5401204090B585B000AF786039600F23FC18FFF7D4F9031C2370074B3A68796891400A1CA2
:402200001A600F23FB181B78181CFFF7CAF9BD4605B090BD0800204080B582B000AF7860024B7A681A60BD4602B080BD7801204080B500AF024B1B68181CBD4680BDC04662
:402240007C01204080B582B000AF7860024B7A681A60BD4602B080BD7001204080B582B000AF786000F04CF87B68181C00F008F8032000F013F800F039F8BD4602B080BDCD
:4022800080B582B000AF7860034B88217A685A50BD4602B080BDC0460000002090B585B000AF021CFB1D1A701623FB600B23FC18FFF773F9031C23700A4B0A4A12680A494C
:4022C0001140FA1D1078FA689040021C0A431A600B23FB181B78181CFFF763F9BD4605B090BDC04610E400E0FFFF3FFF80B500AF024B8022D2021A60BD4680BD00E100E040
:4023000080B500AF024B8022D2021A60BD4680BD80E100E080B582B000AF7860C046064B1B681F221340082BF9D0044B7A681A60BD4602B080BDC0460802254040022540EA
:4023400080B582B000AF78600A1CBB1C1A80BB1C1A887B681A60BD4602B080BD80B582B000AF78600A1CBB1C1A80BB1C1A887B681A60BD4602B080BD80B582B000AF304B32
:402380001B78DBB21B022F4A1278D2B213437B602D4B1B78DBB21B022C4A1278D2B213433B603B682A4A934207D17B68072B04D1284B3B6004237B6009E03A68D4231B01A2
:4023C0009A4204D17B68042B01D1224B3B60224B3A681A60214B7A681A60214B1B78DBB21B02204A1278D2B213437B607A6880239B019A4202D07B68002B01D11A4B7B60AE
:402400001A4B7A681A601A4B1B78DBB21B02194A1278D2B213437B607B68174A934206D07B68164A934202D07B68052B01D1144B7B60144B7A681A60BD4602B080BDC046EC
:40244000D9F0FF0FD8F0FF0FDFF0FF0FDEF0FF0F580B0000580D00006C002E4074002E40DBF0FF0FDAF0FF0F0220000078002E40DDF0FF0FDCF0FF0F0F0F000005050000DC
:40248000050F000080002E4080B582B000AF021CBB1D1A80BB1D1B88181CFFF77FF9BD4602B080BD80B500AF00F066F8BD4680BD80B500AF00F06AF8BD4680BD80B500AF99
:4024C00000F064F8044B181C00F024F8022000F02DF8BD4680BDC046D525000080B500AF024B181C00F004F8BD4680BDD525000080B582B000AF786000F048F87B68181CCA
:4025000000F008F8022000F011F800F035F8BD4602B080BD80B582B000AF7860024B7A681A67BD4602B080BD0000002090B585B000AF021CFB1D1A700623FB600B23FC1822
:40254000FFF72BF8031C23700A4B0A4A1268C0218A43111CFA1D1078FA689040021C0A431A600B23FB181B78181CFFF71AF8BD4605B090BD0CE400E080B500AF024B802224
:4025800052011A60BD4680BD00E100E080B500AF024B802252011A60BD4680BD80E100E090B583B000AFFC1DFEF7F7FF031C2370074B074A126804218A431A6030BFFB1DBF
:4025C0001B78181CFEF7EDFFBD4603B090BDC04610ED00E080B500AF10F002F9BD4680BD002243088B4274D303098B425FD3030A8B4244D3030B8B4228D3030C8B420DD31F
:40260000FF22090212BA030C8B4202D31212090265D0030B8B4219D300E0090AC30B8B4201D3CB03C01A5241830B8B4201D38B03C01A5241430B8B4201D34B03C01A524155
:40264000030B8B4201D30B03C01A5241C30A8B4201D3CB02C01A5241830A8B4201D38B02C01A5241430A8B4201D34B02C01A5241030A8B4201D30B02C01A5241CDD2C30925
:402680008B4201D3CB01C01A524183098B4201D38B01C01A524143098B4201D34B01C01A524103098B4201D30B01C01A5241C3088B4201D3CB00C01A524183088B4201D37E
:4026C0008B00C01A524143088B4201D34B00C01A5241411A00D20146524110467047FFE701B5002000F0FCF802BDC0460029F7D003B5FFF775FF0EBC4243891A1847C0465C
:4027000003460B437FD4002243088B4274D303098B425FD3030A8B4244D3030B8B4228D3030C8B420DD3FF22090212BA030C8B4202D31212090265D0030B8B4219D300E0EC
:40274000090AC30B8B4201D3CB03C01A5241830B8B4201D38B03C01A5241430B8B4201D34B03C01A5241030B8B4201D30B03C01A5241C30A8B4201D3CB02C01A5241830A69
:402780008B4201D38B02C01A5241430A8B4201D34B02C01A5241030A8B4201D30B02C01A5241CDD2C3098B4201D3CB01C01A524183098B4201D38B01C01A524143098B422A
:4027C00001D34B01C01A524103098B4201D30B01C01A5241C3088B4201D3CB00C01A524183088B4201D38B00C01A524143088B4201D34B00C01A5241411A00D201465241B3
:40280000104670475DE0CA0F00D04942031000D34042534000229C4603098B422DD3030A8B4212D3FC22890112BA030A8B420CD3890192118B4208D3890192118B4204D3B0
:4028400089013AD0921100E08909C3098B4201D3CB01C01A524183098B4201D38B01C01A524143098B4201D34B01C01A524103098B4201D30B01C01A5241C3088B4201D3AB
:40288000CB00C01A524183088B4201D38B00C01A5241D9D243088B4201D34B00C01A5241411A00D20146634652415B10104601D34042002B00D54942704763465B1000D37D
:4028C000404201B5002000F00BF802BD0029F8D003B5FFF715FF0EBC4243891A1847C0467047C046014B18687047C046800400200E4B70B500251E1C0D4CE41AA410A5420B
:4029000004D0AB00F35898470135F8E710F0BAFB084B00251E1C084CE41AA410A54204D0AB00F35898470135F8E770BD9030010090300100903001009830010030B5002485
:40294000944208D0035D651C0C5DA34201D0181B02E02C1CF4E7002030BD002310B5934203D0CC5CC4540133F9E710BD031C8218934202D019700133FAE770470EB410B577
:402980009DB002A9029008610B48822488604861012040421FABC881084804CBA400006801938C8100F06CF80023029A13701DB010BC08BC03B01847FFFFFF7F80040020F3
:4029C000F0B58E6885B0071C0C1C03920193B34245D390238A89DB001A423DD003250969236801985B1A029363695D43EB0F5D19029B6D1001331B189D4200D21D1C381C19
:402A000053050FD5291C00F01DFB061E13D0029A2169FFF7A2FFA289184B134080221343A38111E02A1C00F065FB061E0CD1381C216900F0C1FA0C23402201203B60A389C2
:402A400040421343A38117E0029B2661F61826606561019EED1AA560019BB34200D2019E321C2068039900F092FA0020A3689B1BA36023689E19266005B0F0BD7FFBFFFFC4
:402A8000F0B59FB0029005938B890E1C171C1B0610D50B69002B0DD1402100F0D3FA30603061002804D10C23029A01381360D0E040237361002306AD6B6120336B76103351
:402AC000AB763C1C2378002B03D1E31B049312D003E0252BF9D00134F4E7049B0298311C3A1CFFF76DFF431C00D1ACE06A69049B944663446B612378002B00D1A3E001224A
:402B0000002352426A6002A95432521801342B60EB60AB601370AB654F4F2178381C052200F02AFA002808D0C01B01278740381C2B68013418432860EEE72B68DA0604D520
:402B40005322202102A8121811701A0704D553222B2102A81218117022782A2A01D0099B0EE0059A111D12680591002A01DB099204E05242EA60022213432B60013409E086
:402B80002278303A092A04D80A214B4301349B18F6E7099323782E2B18D163782A2B09D1059B02341A1D1B680592002B0DDA01235B420AE0002301342278303A092A04D8B2
:402BC0000A214B4301349B18F6E70793234F2178381C032200F0D0F9002807D0C01B40278740381C2B6801341843286021781C480622671C297600F0BFF9002812D0194B1C
:402C0000002B06D10722059B073393430833059314E005AB00930298291C321C124B00E000BF07E005AB00930298291C321C0E4B00F08AF80390039B013304D06B69039ABA
:402C40009B186B613DE7B3890B985B0601D5012040421FB0F0BDC0464E300100543001005830010000000000C1290000F7B5171C01930A698B6800900C1C934200DA131C90
:402C8000221C3B6043321278002A01D001333B6023689B0602D53B6802333B60062523681D401ED0231C43331B785A1E9341226892061CD53020E1184031C870211C5A1CAF
:402CC00045310978A21840320233D1700FE0221C0123009801991932089EB047431C0ED00135E3683A689B1A9D42F0DBDAE7221C009801994332089DA847431C02D1012084
:402D0000404220E006232068E1683A6803400025042B03D18D1AEB43DB171D40A3682269934201DD9B1AED180027AF420ADA221C0123009801991A32089EB047431CDED05D
:402D40000137F2E70020FEBDF0B58BB006920A1C43320793059004920A7E0C1C109B6E2A00D1A8E011D8632A22D009D8002A00D1B2E0582A00D0C2E045310A707C4A4FE094
:402D8000642A1DD0692A1BD0B9E0732A00D1A7E009D86F2A29D0702A00D0B0E0202209680A43226037E0752A1FD0782A33D0A6E00E1C1A684236111D196013683370A1E063
:402DC00021681A68080606D4490604D5111D19600023D55E02E0111D19601568002D3BDA2D23049A6D42137036E021681A68080606D4490604D51568111D1960ADB202E0BD
:402E0000111D196015685A4B227E03930A276F2A1DD108271BE0221C782145321170554A19680392081D226818600D68100602D4500600D5ADB2D30702D520231A43226048
:402E40001027002D03D1202322689A432260231C002243331A7002E00A27454B03936368A360002B03DB0422216891432160002D02D1049E002B0ED0049E281C391CFFF79D
:402E800035FC039B013E5B5C281C3370391CFFF7A7FB051EF1D1082F09D12368DB0706D563682269934202DC3023013E3370049B9B1B23612BE009681A68080607D44906EE
:402EC00005D5111D19601368A28A1A8004E0111D1960136862691A600023049E236116E01A68111D196016680021301C626800F043F8002801D0801B6060636803E0261C39
:402F000042363270012323610023049A1370079B05980093211C069B09AAFFF7A7FE431C02D10120404221E0236905980699321C079DA847431CF4D023689B0705D4099B41
:402F4000E068984212DA181C10E00025E368099A9B1A9D42F3DA221C0123059806991932079EB047431CDCD00135EFE70BB0F0BD5F30010070300100C9B28218904204D0BB
:402F800003788B4202D00130F8E70020704710B5814208D28B18984205D29B1A013A09D3995C8154FAE70023934203D0CC5CC4540133F9E710BD000030B500293ED004399E
:402FC0000B68002B00DAC9181D4A1368141C002B02D14B60116031E099420DD208680A189A4203D11368C3180B6053684B60216024E08A4203D8131C5A68002AF9D11D6882
:403000005C198C420BD10968691858181960904214D110685268091819605A600EE08C4202D90C23036009E008680C18944203D114685268001908604A60596030BDC046FC
:4030400070130020032370B5CC1C9C430834051C0C2C01D20C2405E0002C03DA0C2300202B6042E08C42F9D3204A1368101C191C002913D00A68121B0DD40B2A02D90A6033
:403080008B181FE08B4202D15A6802601BE04A685A600B1C17E00B1C4968E9E7144E3368002B03D1281C00F04BF83060281C211C00F046F8031C421CD0D00322C61C9643CE
:4030C00086420AD11C60181C07210B301A1D8843821A0AD05142995007E0311A281C00F02FF8431CBAD0331CECE770BD701300206C130020F8B5061C0C1C151C002904D1F9
:40310000111CFFF79FFF041C18E0002A03D1FFF753FF2C1C12E000F025F8A8420ED2301C291CFFF78FFF071E07D0211C2A1CFFF714FC301C211CFFF73FFF3C1C201CF8BDBF
:4031400038B50023064C051C081C2360FDF778FD431C03D12368002B00D02B6038BDC0467C2800200B1F1A68101F002A04DA891804390B68D0180438704710B501F0FEFBFB
:4031800010BD10B500F068F910BD000010B50749044609780220002907D1204601F00FFC002802D1204609F08BF810BD06030020FFB585B0002568460E9F057339481C4663
:4031C0000078002802D0082009B0F0BD10990F9801900097029105A807C800F067F80028F2D10120694603AA0D73002C1BD0002113E08B00E55A082D09D91E19B678002E72
:4032000005D0083DE55213785B1C137003E0042901D2012003E0491CC9B2B942E9D31178042900D300200028CED110990F9800F057FF002801D00120C6E701F09FFB1A4880
:403240000599016021888180A188C180A27A0272A17B4172A089012540084843A0810220A073208950432081A5726846037B22460799069800F0A2F80028A5D16846094C73
:40328000007B607001F082FB00289DD1064806F0F1F9002898D106F00DFA002894D1257092E70000FC010020C8040020FFB53A4F1C4603463F780020364A0A9E0B9D002FA1
:4032C00012D100290FD0029991420CD3002B0AD0002C08D00999042905D3002E03D0FF216E318D4202D2012004B0F0BD00210A460D463FE08B001E19B678002E36D0E35ABD
:40330000002B33D073435B199DB20B0000F048F806040E15191D253F2388FF27A678233BEB37BB42DFD2032EDDD31FE0A3880C2BD9D91A4EB342D6D818E02389302BD2D126
:4033400014E0A389482BCED110E0228A134E1346233B223EB342C6D208E0A38A0F4F1E46233E223FBE42BED29342BCD80028BBD1491CC9B2099B9942BCD319461C22514315
:403380004A190449521802998A42ACD8ACE70020EEE70000D8080000FC010020DCFF000030B47446641E2578641CAB4200D21D46635D5B00E31830BC18470000FFB50F46DF
:4033C00006460024384381B01D46800701D0012438E0FFF783F8FFF76BF800F097FA00282ED100F0D3FB00282AD11849084600F0ABFE0004000C23D13000154E04D0306023
:40340000B7800020F0803581AD1DEFB23946039800F046F804000ED1B088F2880837801AF9B280B201F080F9002801D0012407E0E8B200F019F900F031F906490120087004
:4034400000F076FA204605B0F0BD00008D350000D4040020FE01002010B503480078012801D101F003F810BDFE01002070B5084B0446DA889E8800205518B54206D81D68BF
:40348000AA182260DA885118D98070BD032070BDD40400200148008970470000D4040020F0B587B007460D4600208900009006916846FFF7DBFF844600285DD130480099B3
:4034C0000160002117E02E4B88001A680629115406D22C4C0419667882185670628805E0C419203CA67A8218567022891B68C018491C4280C9B2A942E5D300242DE0601C11
:40350000C2B2059025E01E4FA30039689600581840887118039604904E88B04217D938466F46FE80B6464F786E4677710297049F4F800168039F5E18767879184E7001684E
:40354000764659184E800068029F18184770521CD2B2AA42D7D30598C4B2AC42CFD36046002809D168460699FFF780FF8446002802D1054900980860604607B0F0BD0000AE
:4035800000020020B8300100040200207047000010B5002809D005494A68002A05D0011F08788000105801F06DF810BD0002002010B50446FFF76EFFC0B2801DA0420CD34F
:4035C00007484068002808D0A100405800F0CCFF002801D00470001D10BD002010BD000000020020F8B516460D460446FFF752FFC0B2801DA04203D20020C0430090F8BD5F
:40360000B2B2E9B2684600F0D5FF0099481C03D0024AA000526811500098F8BD00020020F8B50746FFF736FF801DC6B20A49002005460C680DE06178002907D06188B942BD
:4036400002D32078FFF7B4FF002804D1241D6D1CEDB2B542EFD3F8BD0002002010B5002801D0FFF795FF10BD70B506460948002504680BE06178002905D062882078121D63
:403680000023FFF7AFFF241D6D1CEDB2B542F1D370BD000000020020002070471CB5002469460C70142001902346054A05480CF0DBFC04480068401C00D1FF2420461CBDF9
:4036C00019370000080200203EB5124A0146FF2000230124126800290DD0012914D0042908D104206946009308814B8110460CF0B6FC80B23EBD684600930481438169469A
:4037000010460CF0A7FCF4E768460093048143816946EBE70802002070B545890468416800890300FFF73CFE06240408081D2124002004F075FF1BE0022908D0C8B22A46B0
:4037400021460AF03BFF2046FFF788FF10E002202A4621460AF032FF2946204600F00AF806E000200CF074F902E020460CF002FD002070BD014B0022DB6818470C020020B3
:4037800070B5448905680089022803D0032809D0FF2070BD2246094C0023A46829460120A04708E0FFF7E9FC241DA2B200232946022005F042FE002070BD00000C020020B5
:4037C000704700000248002141600180418070470C02002070B50C46002186B016460391012802D0022859D116E003A9012005F07CFE01281BD1039D324621462846FFF7A8
:40380000ACF80095287801900220694608814E816846FFF7B5FF41E0214D002B686809D0049004A9022005F060FE01281DD0022006B070BD002812D0298840182146FFF7F9
:403840008CF828880024801980B228806988091D884206D12C801348FFF792FF03E00320E6E788421AD96C6018E004986860E278A378110219430B4A698000231060E35691
:403880005360032313815181A1788170E178C1706178417021780170042028800020C7E70C020020E00400203EB515460C46022803D004280CD000203EBD009101900220D1
:4038C0006946088107484A8100680CF0C8FB07E00AF074FE044B0022DB6829462046984701203EBD080200200C020020014AD160906070470C020020034801688068081A11
:403900000A21484300097047EC04002010B5FEF7D5FD542204490548FFF71FF803490120C870002010BD0000D4300100CC07002010B5FEF7B7FD10BD70B5134C2368002B59
:4039400008D0207B1149C20705D04008400020738868A08070BD88680B4AA18880B29268814203D90A4D691A091802E0814202D2411A5118A160A080A0689842EAD300F063
:4039800015F80CF089FB70BDEC040020C0102E40FFFF000010B508461946FFF7A7FF10BD704710B5FFF780FF10BD000003480021016041608160C16070470000EC04002031
:4039C00010B502000DD0FFF7F1FF074C0321207B0843207310010A21FEF788FE2060002010BDFF2010BD0000EC04002000B504480A21806848430209FFF7D8FF104600BDA3
:403A0000EC0400200248007B8007C00F70470000EC04002010B537490868002802DA364B01221A70022290430860344800693149C00B4031096A08425AD0012000F02AFA97
:403A40002E482F497C30FEF789FC2A480E216C30FEF784FC294820218430FEF77FFC274814219C30FEF77AFC2448FF21C131A430FEF774FC2148FF212F31B030FEF76EFCF0
:403A80001E482049BC30FEF769FC1C481E49AC30FEF764FC1C491948491CB430FEF75EFC16481A49B830FEF759FC14481849CC30FEF754FC114817490830FEF74FFC0F481E
:403AC0001549A830FEF74AFC0C4814498830FEF745FC0A4812498C30FEF740FC07481921C9029030FEF73AFCFEF746FC002010BDFF2010BD00F02E401C02002000002E40C3
:403B000055650000320300002F3F00003102000010520000EC160000FA12000031D000003AE3000070B50646581C80B245086D00002408E0304600F07FF81055000A111914
:403B4000A41C4870A4B2AC42F4D3D80705D0D0182038D15CC47FD454C17770BD30B50A4C002100195B1E07E0541864782502545C2C430480891C89B29942F5DB994201D1B2
:403B8000515C018030BD000000102E4010B5FF2000F080F90F49FF2048700E481021801D41800121417001700A490020C91C4870FFF730FF04000AD100F0CCF80721064889
:403BC000FEF7BEFB044807211830FEF7B9FB204610BD00001C020020CC112E4030B504465B1C1804450C002308E0204600F024F8241D59005B1CA4B250529BB2AB42F4D35C
:403C000030BD000070B500210A4D5B1E0AE0541864782602545C344346193480001D891C80B289B29942F2DB994202D1515C4019018070BD00102E40014940180088704755
:403C400000102E40014A80180180704700102E4010B50B490020487000F07CF8002000F03FF9002000F02CF907210648FEF768FB044807211830FEF763FB002010BD000091
:403C80001F020020CC112E4010B50B46062812D006DC01280CD0032801D1FFF7D9FF10BD0A28FCD00B28FAD105480078107010BDFFF76CFF10BD1146184600F02DF910BDFF
:403CC00022020020F8B5204DAC6A0127A0071F4E002816DA307806280ED1286A384328621B480069F903084381B219481030FEF735FB042000F0CEF8134802212830FEF7FF
:403D00001FFBE00711D0062000F0C4F80F49FF20C91E48707078002802D1686B38436863094801212830FEF70BFBE0050BD53078042802D1052000F0ADF80348FF21013134
:403D40002830FEF7FDFAF8BD40F02E401F02002000002E4010B503212348FEF7FFFA0120FEF792FB20483038406A204C80076178800F890001431C480C38FEF7EFFA607818
:403D8000002808D0401E022181401820FEF79EFDC000083800E0B82081B21548FEF7DEFA1348032109021438FEF7D8FA10481149B830FEF7D3FA612189010F48FEF7CEFACB
:403DC0000D480321001FFEF7C9FA0C490C48FEF7C5FA0B480B496038FEF7C0FA084801218838FEF7BBFA10BD70F02E4022020020D8102E4090890000041E2E40FF0F000060
:403E000058122E40209000000849087806280BD148780749002803D1486B400840004863C86A01221043C862704700001F02002040F02E4001480078704700001F0200200C
:403E400000B50300FFF7ACFA080D050D0B070507090D012000BD032000BD042000BD022000BDFF2000BD0000074A9168D26889B2064B92B2994204D105498A4201D1012127
:403E800000E000210170704780002E4033D000003FE3000010B50446FEF70AFB072C01D9FF2C01D102480470FEF7FCFA10BD00001F02002001494870704700001C02002005
:403EC00010B5064A012805D01921C9021046FEF745FA10BD1D21C902F8E7000090002E4010B50A4A141D012808D009491046FEF735FA08492046FEF731FA10BD044910460F
:403F0000891CFEF72BFA0349491DF3E788002E4031D000003AE300000078074AFF2803D04C2804D9553803E01078087070474F3808701070704700001E020020F0B50122A9
:403F4000002830D000292ED00224420600D003246D2342065B06D21800D0641C034600221EE00C2516466E43104D00277519AF720E4F002ABB51696007D0661EB24209D1BB
:403F800006466D367606760E05E05E06760E8027BE1B00E080269B198919521C2E81D2B2A242DED300221046F0BD00006C060020074900200C2242435218927A012A05D063
:403FC000401CC0B20428F5D300207047012070476C060020F8B5044616460F000BD0184D6868A04203D9FF306E30A04203D3FF206E30864201D90120F8BD2046FEF79EFCDF
:4040000000281BD0324639462046FEF7A6FCF0B200210C224A43521913895668F718A74208D90127A41B1B1B9772834206DAC01A1469C0B2491CC9B20429EAD30020F8BD2A
:404040006C06002010B500F05BF80648FF22C1686E320C460448FEF780FC03492046FFF76DFF10BD28020020FC040020002070470020054A002902D0012902D002E0506045
:4040800000E09060002070472802002070B5084C154608460549A26889182A46FEF75DFCA0684019A06028B270BD0000FC040020280200203EB50A226946FFF7E7FF044670
:4040C00006480A2200686946FEF738FC002802D00020C0433EBD20463EBD000028020020002803D0FF226E32914201D2FF20704702490A61C860002070470000280200200C
:404100000248002141608160704700002802002070B5074C15460548626880182A46FFF759FF60684019606028B270BDFC0400202802002010B503490A220968FFF7E8FF74
:4041400010BD00002802002010B50F4A002313600E4A13600E4B18600E4801600E49012008600E490860000290600E490C4808600D4914300860FF381538506000F0BCF8A3
:4041800000F0CAF9002010BD540200203C020020680200206C02002058020020480200209C0700204C02002060020020014610B50020002910D0094B1A689C685118A14281
:4041C00009D25868196080188A0704D08A07920F891A091D196010BD002010BD3C020020F8B50024164E671E321F3D463168136806E01422624310328A58521C1BD0641CC2
:404200009C42F6D36A1C14D02C461422544322460C3288500C214843FFF7C8FF3168002808510AD031680020103408517068401C70602846F8BD2546E4E73846F8BD000061
:404240004C020020F3B50026F64381B000281BDB1E490968884217D80299002914D01B4F142204463F1D54432546396810354859401C09D0FEF71CF938682F1F4159C3598F
:40428000994203DBFEF70EF93046FEBD214608310091465801590C20704308180C220299FEF75BFB0948761C001D0068C159B14200D100260549009A091D86500868415982
:4042C000491C4151FEF7EEF80020FEBD48020020002803DB07490968884202D90020C043704704491422091D09685043103008587047000048020020F0B500200D4A451E74
:404300000346171F50600FE014260146714314680E1DA3510C461668083433511668083435511468401C635039688842ECD30020F0BD00004C020020F3B50026F64381B097
:40434000002841DB2349096888423DD8029900293AD0204F142204463F1D54432546396810354859401C2FD0FEF7A2F83868415900292BD0211D009146580C2100597143AC
:404380000F46C1190C220298FEF7E7FA11480021001D0068761C00590C34C0190160416081600C48001D00680159B14200D100260849009A091D865008684159491E415143
:4043C000FEF770F80020FEBD3046FEBDFEF76AF8FAE7000048020020FEB504460D4600201E49089E0860471E009001900290002C11D0486885420ED2002A0CD0002E0AD043
:40440000642E08D808460C3001681C2068430C18207A002801D03846FEBD0120226020721846FFF7DDFE6060401C13D06681A6810A4827610C3067610179A94200D2057144
:404440000021684601810A462846029B00F040F82846FEBD00202072DDE700005402002038B50124009400F039F838BDFEB50027164EFF433D4600240EE01C20316860430A
:404480000818017A002906D04068FFF721FF002801D0254603E0641C3079A042EDDA681C12D01C2130684D434419FEF701F869466068FFF741FF0546FDF7F4FF002DD9D1BF
:4044C000216868468847D5E7FEBD00006002002038B50024009400F001F838BD1FB500220C49541E0A60002811DB496888420ED808491C220C31096850430818406801A95C
:40450000FFF7A0FE401C02D0002004B010BD2046FBE7000054020020F0B50021114A4D1E174611710C3F0B46BD6016E008461C2460431668041D3551146806462350146833
:404540000836A3551468361DA353044616680A34335318301468491C255078688142E5D30020F0BD6002002038B500210091002811DB0F49097888420DDA0D4D04010C358F
:4045800029680859002807D0201D0818694600F071F9002801D0002038BDFDF789FF28680F34015D491E0155FDF77CFF009838BD70020020F7B582B0002502986E1E06600F
:4045C0002E48D21C024017462D4A2C4610460C380178106805E02301C358002B0FD0641CE4B28C42F7D3711C28D03401211D40180191039900F02CF900281FD101E0264670
:40460000F1E71F48016820460C300F521C480399026820460E30115419480399026820460F3011540398784300F0A0F8144900280968085102D00024009011E001251AE027
:404640000F48016801980818009900F02EF9002801D0012502E00098C0190090641CE4B203988442ECD3002D05D10298066004480179491C0171284605B0F0BDFCFF00006E
:404680007C020020F8B50D4600216A468C461180002839DB23490978884235DA214B04010C3319680A59002A2ED020460C300B5A801C0E5C184670438018954224D385421F
:4046C00022D2002006E007465F43BF18AF4206D0401CC0B2B042F6D36046002814D0114E271DC8190C366A46294600F008F900280AD168460088012808D030682946C01908
:4047000000F0D3F8002803D00120F8BD0020F8BDFDF7CEFE30680F34015D491C0155FDF7C1FEF3E770020020F8B50F46002400F033F8002817D10C4900220B460C334A6043
:404740000EE021011D680E466A501D680C36AA53B61C1D680F31AA551D68641C6A54E4B2BC42EED31A71F8BD70020020014610B5002000290CD0C91C064B8A085968920006
:404780005C888A18A24202D898685A60401810BD002010BD70020020F8B5064600200F4D009029700C0121466846FEF75FFE00280CD129460C3100980860301B001F84B2F4
:4047C00021466846FEF752FE002801D0FF20F8BD6C800098A8600020F8BD000070020020F8B5002827DB19490978884223DA174C05010C342168485900281CD028460C308D
:40480000085A009028460E300E5C401C0E5420682F1DC01900F064F800280CD12068002445590EE0094829460C300068C01900F03CF8002801D00120F8BD00982D18641CEF
:40484000E4B2B442EED30020F8BD00007002002030B50D4604000BD0A800FFF787FF6060002805D000202570C0436080002030BD012030BD70B50D46040005D0002D03D088
:404880000220205E002801DA012070BDFDF710FE0221615E60688900405828606088401E6080FDF7FFFD002070BD70B50D46040007D0002D05D002212078615E401E81425F
:4048C00001DB012070BDFDF7F3FD6088401C00B26080616880000D50FDF7E4FD002070BD10B5040009D0227800216068FEF73EF80020C0436080002010BD012010BDF0B539
:4049000000231D46002802D00224045F0AE00120F0BD46689F00F6598E4201D1012503E05B1CDBB29C42F4DA15700020F0BD00000148007870470000840200207CB50546D3
:404940000024FEF71AFCA8796946087000A8062229460130FEF701F80021684604F0BEF80C2804D0072804D01F2804D004E0022402E0042400E0272420467CBD10B500F030
:40498000B7F8FFF757FAFFF75BFA10BD10B503240BF076FF002810D10BF01AFF00280CD104F0F2FD002808D100F064FA002804D104F0EEFA002800D10024204610BD70B5EB
:4049C0000025044600280ED0A07901280BD8FEF7D4FBA0790028204602D002F0D5FD03E002F08AFD00E00125284670BD38B504460120002C20D0617801291DD800290BD0AF
:404A0000FF25E535FEF7B9FB2846FFF715F9C0B22070072803D00EE0FF25CD35F2E70020694608706846FFF71FFA69460878012801D108202070002038BD70B504460120A1
:404A4000002C1FD06178012902D92278092A19D8002905D0FF25E5352078092803D004E0FF25CD35F8E707202070FEF786FB2078082808D00020FFF733FA21782846FFF7B1
:404A8000E1F8002070BD0120FFF72AFA0721F5E770B50D46040001D0002000E00548002802D0012101F0A8FF2946204602F082FA70BD00004008002038B5054600200446C9
:404AC000009022466946284600F06CFE0098002801D00BF0B7FEA878214602F0AFF8A878214602F09EF8641CE4B2052CE9D338BD38B5FFF79FF9042819D0052817D006280D
:404B00001AD0032842D007280AD100206946087002460120FFF7B8F8FFF78CF90128FBD138BDFDF73DFDFFF785F90128F8D0FFF781F90128F5D138BD02F0E8F805E0FDF7F7
:404B40002FFDFFF777F9012803D0FFF773F90128F5D1A12424012046FFF76EF801220E4983079B0F0A70022BE5D149880029E2D0104301462046FFF765F82046FFF75CF8F0
:404B8000410849002046FFF75DF838BD02F0C2F80120FFF77FF938BD8A020020F8B50646002402F0F5FD0546304602F009FE00210346012632468A40174610462F401840D9
:404BC000002F03D0002801D1224394B2491CC9B20529EFD32046F8BD1CB50020694648706846FFF703FF01AA69460A20FFF74CF86946042008561CBD10B50C4601F078F9E4
:404C0000002809D00179002906D0C1788078224602F07EFA002010BD022010BD01480078704700000C0800204030C07E002800D00120704700B500F001F800BD8821484362
:404C4000064940186030417F491CC9B24177052901D300214177C8B2704700002008002013B501F045F904000BD001F098FC002807D0214601AA0A310620FFF705F8002071
:404C80001CBD02201CBD000010B50C4601F030F900280AD001F083FC002806D0224604490A20FEF7F1FF002010BD022010BD0000F5070020F3B581B0074601460026029896
:404CC00002F05EFD0446002F01D0002500E0154D002D21D0284601F041F9032C04D13946029802F077FD06463846029901F099FF032C06D0002C10D00121384601F01CFAD6
:404D000003E03146384602F019FF284601F05AFE0221284601F070FEFEBD3846029901F080FFFEBD4008002070B50446002503F00FFB002801D00C2070BD2078611C02F099
:404D4000E1FAFF2802D01F25284670BD02F02EFBFF2804D02178621C01F0D8FEF4E70725F2E710B503F0F4FA002801D00C2010BD02F0A0FA002010BD70B50D4604461021A8
:404D80000BF0A0FC1021601806460BF09BFC334610221946204603F007FB102130460BF091FC02202870204604F04AF870BD70B504464078217802028006850FE078114334
:404DC000A67809050002090D0643084601F090F8002812D0022D10D0032D0ED0002E08D00179092909D0002907D0214600F0A1F870BD0089002103F058FF20460BF022FD1C
:404E000070BD0020704770B50446002503F0A0FA002801D00C2070BD2078611C02F072FAFF2802D002F0B4F900E01F25284670BD10B504F0ADF800F0F6F8002010BD10B543
:404E4000044600786178E2780843A17811430843217908436179084305D003F06BFA002803D00C2010BD122010BD204602F08CFB002010BD10B5044803F0D4FA02F092F9F5
:404E800000F004F8002010BDDC070020F8B5114D00266E706E736E716E76AE76EE766E75AE70EE70AE712F46EE730120B03778723F207871FF20B87100F00AFA0024204687
:404EC00001F034FB641C2406240EF8D03E72FE71AE73F8BD2008002070B505460E46084602F056FC0446304602F06AFC0121A9400A46224001400A4301D0012070BD0020B9
:404F000070BD10B50446084602F05AFC0121A140014201D0012010BD002010BD10B5FEF789FF032804D101F0F5FE0120FEF7B2FF10BD70B5044600790D4609281CD0002873
:404F40001AD020464030817E491C8176204601F039FDA078FFF76EFE064602462946204600F00CF8002806D1A0783146FFF790FD28460BF067FC70BD0846FAE7F7B5054682
:404F800048780C468006870FC8788978000282B0014368468180284601F00CFB060007D021462846049A00F091FB304605B0F0BD384600F039FC0746034601AA2946204698
:404FC00000F0CAFA68468088231DC0B20090A878FF22049901F0A8FF684680883B46C2B2A878049902F04CFBDFE770B5002500242846FFF7D3FD060010D03046E040C00743
:40500000C00F07D02146284601F0FFFD21462846FFF750FE641CE4B2052CEED36D1C2D062D0EE4D070BD10B502F0BCF8FFF72EFF0BF070FC002010BDF8B5002400F081F8F3
:405040000123012800D10124104F00203E4620360425082203E0002801D0002100E031460979002907D001290BD002290BD0114681402143CCB2401C0006000EEBD07C704F
:40508000F8BD1C43F7E72C43F5E700002008002010B5FFF7D1FF10BD10B50B4681791943817103D08078114602F0AEFA10BD10B582798A43827102D1807802F0BDFA10BD6B
:4050C00070B5FF25D53502242846FEF7B5FD0C4A9178002901D0022906D1137852789A18282A01D9032402E0032900D101244105490DE00201432846FEF7A4FD70BD000076
:405100008602002010B500F022F8002807D0012805D0032801D0042801D0002010BD012010BD014610B50020C90701D000F009F810BD014610B50020C90701D000F001F8E6
:4051400010BD10B52020FEF777FD000A10BD10B51820FEF771FD410501D5042010BD4007800F10BD38B5044640060CD5684601F0D7FD0220FFF78CFF072002F02FF96846AA
:40518000007801F041F9200613D5FFF7E0FF01280FD1684601F0C4FD6846007800F09AFA072002F01BF9012001F074FC0220FFF76FFF38BD10B5034A0178117002F01DF918
:4051C000002010BD8602002010B50446FFF7B9FF002801D00C2010BDA27B01211848002A827801D00A4301E05208520082706279012A0FD0C17849084900C1702079012860
:405200000CD06188208802F007FF2080207904280BD00DE0C2780A43C270EFE7E01D02F09BF90848808C208002E0E01D02F094F9054920798870204602F0EEF8002010BD66
:4052400020080020CC0700208602002038B50478FFF777FF844201D10C2038BD002C18D0072069460870FFF74DFF012807D10121684600F08DF8012801D0092038BD68460D
:40528000007802F0ABF8FFF71BFF02F0F2F8012010E0FFF737FF012806D1684601F040FD6846007800F04AFA072002F097F802F0D7F80220FFF7ECFE002038BD10B5034AF0
:4052C0000178517002F078F9002010BD8602002038B568460BF04CFA002801D01F2038BD01210098C90201804180002505714571857107214173857302F08EF8009C20223B
:4053000000212046FDF732FB25702A460021601CFDF72CFB204602F070F8204602F04CF900980BF08FFA042200210248FDF71EFB002038BD860200200346084800B5834221
:4053400009D8184600F0D4FD002804D00089984201D1012000BD002000BD0000FF0E0000074A9179491C8906890E917138220A4092014907090E11430843024908407047C5
:4053800020080020FF0E0000C006C00E70470000F8B507460E4600240D4803E0002C01D0002500E005462979002905D0641C2406240EF3D00020F8BD204601F0B7F82E719D
:4053C0002046FFF7CDFF28813C700120F8BD00004008002010B503F01BF80222002100F003F801F087FE10BD10B5094B40074907000F090F185A595A40185043C008642180
:40540000FDF774F9002800D1012080B210BD000028310100F7B53D20405C88B016460C46002829D030786946087200252046FFF7FBFB012800D00125204603A93830019179
:40544000009023460327A17E34332A46206A03F003F802A8089900900B46019120463A4603A9243002F082FF02466846007A3070204601F047F810460BB0F0BDFFB587B035
:405480000C4605461078694608723D20005D1746002826D000262046FFF7C6FB012800D00126204603A93830019100902346A17E34333246206A02F0CFFF02A80090291D39
:4054C000019120462B1D03A924300A9A02F04EFF02006846007A388002D1204601F012F810460BB0F0BDF7B53C20405C88B015460C4600280CD0287869460872002806D061
:4055000000262046FFF790FB012803D003E01F200BB0F0BD0126204603A938300191009023460327E17E34333246E06902F094FF02A8089900900B46019120463A4603A926
:40554000243002F045FF02466846007A2870204600F0E2FF1046DBE7FFB505463C20405C87B016460C46002810D0084601F022F801280BD0308869460883002809D00027EF
:405580002046FFF751FB012805D005E000200BB0F0BD0220FBE70127204602A93830019100902346E17E34333A46E06902F054FF06A80090291D019120462B1D02A9243011
:4055C0000A9A02F005FF02466846008B30806846008BA870000AE870204600F09DFF1046D5E770B50D460446FFF71EFB01280AD0E87AA97A00020143A07801F04BFC012811
:4056000008D0002070BD00222421204602F04EFC242070BD28214C200155204600F09AFB282070BD002801D0002000E003484030C07F012800D00020704700004008002035
:405640000146002049070ED50021084B03E0002901D0002200E01A461279022A04D0491C0906090EF3D0704701207047400800200146002049070ED50021084B03E00029F3
:4056800001D0002200E01A461279022A04D0491C0906090EF3D07047012070474008002010B5044680346068002803D00BF0DEF80020606010BD40304170704740308170AA
:4056C00070474030017070470171704792001018C166704770B53C2501F0F6F8040004D020460021433001F08FFB2946204600F0C3FB002C02D0A07801F078F870BD0000C1
:4057000010B5002801D0002000E00348002802D0008903F011FB10BD4008002010B5002801D0002000E00448002804D00179072901D100F041F810BD4008002010B501F013
:40574000C3F8002802D0807801F050F810BD00207047000070B50546008A00281ED010491122897A1140C90618D5294640314A8A098A521C4A4392B2D10800D10121540845
:4057800001E0621A94B2A042FBD9FFF7D1F8012804D1298AA878224601F05AFC70BD0000CC07002000230B60052A04D292001018C26E0A60C366704738B504460020009083
:4057C000A079002814D14020015D052901D00E290ED168460AF0DCFF002809D12046009902F04CFB03481021C28A2046FFF754FC38BD0000CC07002010B50B4604460146F0
:40580000184602F01BF8002802D020460BF024F810BD13B5044601AA11460620FEF734FA6846818861811CBD002800D10220704770470000F8B504462346401D5433009095
:405840009A1EA078911E01F07AFA25464035A88A298A8000FCF74AFF401E81B2688A884203D96982A07801F04CFF20460021433001F0CAFA8020FEF7DFF9E88102F0C8FD1F
:40588000E989891C8AB26179FFF7AEFD01F032FC02F0BEFD2A8A6179FFF7A6FD074601F01BFC688A00280BD0FF26F1363046FEF7C3F90321090201433046FEF7C3F902E0EE
:4058C000002001F00CFFFF206130FEF7B5F96E8A002E0BD070431049FCF7F8FF0004000C01D0401C80B20D49488002E00B4800214180288A704381B2A07801F06BFE283735
:40590000B9B2204602F08CFBE98AA07801F0BAFDA07801F0A9F9F8BD710200008A0200207FB504468034616805460E46183108226846FDF712F831462031082202A8FDF722
:405940000CF8102168460AF0BDFE6068102108300AF0B8FE60682B46083024331022694602F022FD7FBD10B504460821FFF79FFB10212046FFF79BFB207905281FD00628EA
:405980001DD008281AD12189002003F04DF9072020712046FFF748F9014620464030012913D00E21017000210176204600F02AFF2046FFF775FE2046FFF7CCFE10BD20893B
:4059C0000122002103F014F9E1E70521EAE70000FFB581B01F4604460821FFF768FB10212046FFF764FB2079082803D0092804D0042203E00422012501E009220025204615
:405A000000F0C4FD264600204036307022712046FFF746FE0398002D02D0012808D00BE001280AD120890022029903F0E1F804E02189029803F0F8F8012700203076012FFB
:405A400004D0204600F0DEFE05B0F0BD02983073204602F057FA054605480121C28A2046FFF71AFB002DEFD109202071ECE70000CC07002070B50C460546FFF7D5F8012846
:405A800009D108212846FFF712FB0023012221462846FFF79DFF70BD10B5044600F076FD2046FFF7FDFD00214034217010BD70B505461A24FFF7B8F8012809D108212846EF
:405AC000FFF7F5FA0023012221462846FFF780FF70BD0000F8B50446002000900E4668460AF056FE002801D00D20F8BD8420005908212030009D00F0F7F92046042138304C
:405B000000F0F2F9002E02D1204600F07DFD2946204602F043F90E480821C28A2046FFF7BBFA204600F0D5FE25464035002808D0204600F023F8002801D009202870002086
:405B4000F8BD08202870204600F03CFFF7E70000CC070020014610B540310A460978082906D0092907D00A2901D100F091F810BD0B20107010BD00F001F810BD70B5044608
:405B8000007925464035052805D0062803D008280FD00C2070BD03220621204602F086F90D480821C28A2046FFF776FA1120287010E006202873204602F0A4F90646AA8A79
:405BC0000A20424301212046FFF766FA002E01D109202071002070BDCC07002038B504460020009068460AF0D3FD002801D00D2038BD2046009D00F08DF90820207120460C
:405C000000F002FD2946204602F0FAF800213D2001550F2040210855204600F0D3FE002038BD00B5024600F0B1FC10214032117000BD10B50446FEF7F7FF012809D04020E8
:405C4000005D112805D100231A4606212046FFF7BFFE10BD10B5FFF786FE10BD38B504460021684600910AF093FD00280CD12046009902F03CF905480821C28A2046FFF7B2
:405C80000BFA0D204034207038BD0000CC07002038B504460021684600910AF079FD002801D00D2038BD2046009902F015F905480821C28A2046FFF7EFF90C20403420706F
:405CC000002038BDCC07002000787047F8B50025002801D0002400E01A4C002C28D0204600F05DFC002823D0207903281CD005281CD026464036B18AA07801F079FCB078BE
:405D0000012815D10021204601F0B5FD274680373868002802D00AF0A9FD3D600020B0702079072805D007E0042000E006202071F8BD2046FFF70EFD0221204600F05CFEC1
:405D4000F8BD00004008002010B54C22115400F046F810BD10B50446FF21FFF7A8F909202071A07801F074FC10BD000038B5FF216A461180002801D0002400E0064C002CE4
:405D800008D011460620FDF77FFF684601882046FFF73FFD38BD00004008002010B504468079002809D022214C200155FF212046FFF77DF9204600F012F810BD10B5037982
:405DC00002464032002B03D01173092B02D003E0002100E02221117300F001F810BDFEB504460089002700902781207926464036002817D0012815D002280AD112E002AAE0
:405E000001A9204601F008FD002807D101980AF023FD204601F028FD0028F0D02046FEF74BFEB776254680352868002802D00AF01DFD2F606868002802D00AF017FD6F6080
:405E4000317B002915D0009800F047F8A078002100F01EFF2046FFF7BDFAA07801F004F8A07800F0C3FC0B20FFF712F900F002FCFEBD1F213173E6E770B50E46054602F040
:405E8000C3FA044606702846FEF7CEFE014601204140204661700C3000F09FFF002D10D02889608028464030C1782171002E10D169796171018AE180418A2181808A6081FE
:405EC00007E01820FDF7B8FEC005C00F207100206080204602F051FE70BD0A4610B50146002002F041FF10BD10B50AF0C7F910BD00B50146FFF748FA002801D0002000E0EC
:405F00000348002802D002898A4200D0002000BD4008002038B5044680346068002806D168460AF045FC002801D100986060606838BD000010B5014600F03CFB01288878AA
:405F400002D0FEF77BFE10BD88214843024940186030007F10BD00002008002070B5054604464035A87F012811D1A1788820084A484380186030067F3046FEF7ADFF00282E
:405F800005D10220A877A078314601F021F870BD2008002010B50E4CE079002816D0FFF724F80C48827FC17F808B00F06BFB01280CD10020E07100F0BCFE0446AC20FDF703
:405FC0003BFE010B02D0204600F00EFA10BD0000D00800202008002070477047490510B5490F0B00FDF7DCF9060704080C0C0F073E21FFF7A9FE10BD0821FFF7DFFE10BD99
:40600000FFF7EDFE10BDFFF7C9FE10BDF8B507460025002D01D0002600E0204E00F064FE3046403044890021418100F067FE304600F0B5FA01282BD1A00702D52846FFF73E
:4060400045FEE00602D52846FFF790FEA00601D5FEF7CBFF600601D500F0C8FA200602D5284600F01DF8600702D5284600F0FAF9380402D52846FFF751FB780402D5284682
:40608000FFF73EFBE00703D021463046FFF7A6FF6D1C2D062D0EBCD0F8BD000040080020F8B5002801D0002400E0204C002C39D025464035A878012834D1E98AA07801F0EA
:4060C000E1F92046FEF7B0FD01282BD002F0A0F92A8A6179FFF788F9064600F0FDFF2836B1B2204601F09CFFE98AA07801F0CAF9FF206130FDF7A0FD6E8A0D4F0146002ED6
:4061000011D0304648430B49FCF7E0FB0004000C01D0401C80B27880288A704381B2A07801F058FAF8BD0020F5E70000400800208A0200207102000070B50D46124A0100F4
:4061400001D0002401E014462034002C1BD0204600F030FA01280AD18820484380186030007FFEF7B9FE002801D101F055FE20464030817E491B8176204600F023FC2089EE
:40618000294602F092FD70BD2008002070B503460088FFF7ADFE040013D000F000FA00280FD02079092819D02546997840352973204601F0A7FE0646A878012803D0AA8A33
:4061C00002E0022070BDEA880A20424301212046FEF762FF002E01D109202071002070BD0EB5002217216B460292198100905A810120029B00990AF0ABFB0EBDF8B5184E2C
:406200000024F079002820D10025AC20FDF714FD000B21E0204600F007FEFDF70DFD07462A46214600F02EFA01280FD00D48012187838577C477F171002D01D0002000E001
:406240002030002801D000F0BDFBF8BDAC20FDF7F3FC000B641CE4B20028DBD1F8BD0000D00800202008002010B50088FFF740FE002809D0014640310C460978082905D0CC
:406280000B2903D00C2010BD022010BDFFF776FC002801D009202070002010BD70B503460088FFF725FE040008D0254640352878082805D00B2803D00C2070BD022070BDCA
:4062C0008420005910220830991CFCF746FB2046FFF726FB2878082804D02046FFF7D8FC002801D00A202870204600F06BFB002070BD000010B50C46002121700088FFF7F2
:40630000F7FD03000BD000F04AF9002807D009481121807A0840C00603D4112010BD022010BD022020701A8A1889002102F038FD002010BDCC070020F8B50F460021009137
:406340000088FFF7D5FD040012D000F028F900280ED0E079410641D4617E02264A07002A08DB8907402500291ADA2843E07135E00220F8BD02F048F80021017021894180CD
:40638000A1898180217E4170E189C1803E7005460178134802F06AFA284602F0A5FC1DE0204600F00DF9012806D068460AF0F0F9002803D00720F8BD2A20F8BDE0790099E2
:4063C0002843E071204601F0C7FD607E0421304360760448C28A2046FEF75EFE0020F8BD1D040000CC0700203EB500220F236C460292238100910190628169460EC9002066
:406400000AF0A6FA3EBD000070B5054600F05CFA040021D003202071254600264035EE76E6702046FFF706FA01F01AF80920FEF72FFEA07800F006FD0121204600F0DCFAA5
:406440002E706E70AE7000212046FFF715FD0449887B401C887370BD284601F0F9F870BD2008002010B5002801D0002400E00A4C002C0FD020464030417802290AD1002181
:4064800041702046FEF7D0FB002803D10221204600F0B2FA10BD00004008002070B503460D460088FFF724FD04000BD000F077F8002807D012481121807A0840C00603D4A7
:4064C000112070BD022070BD20464030418A008A491C41430804C10C5888884201D2122070BD20822079072802D12046FFF732F9022028702089002102F07AFC002070BD29
:40650000CC070020016A491C016204D1817E491C4906490E81767047C169491CC16104D1C17E491C4906490EC176704770B500250646002801D0002400E0114C002C1CD0E2
:40654000882200212046FCF711FAA67000202646207140363070204600F018F8204601F07FF9084820820848B577807A1121084000D001202075012070BD002070BD00006B
:4065800040080020B80B0000CC070020002101628176C161C17620300177417770470079002805D0012803D0022801D001207047002070474030807F002800D00120704757
:4065C00040300078002807D0012805D0052803D00E2801D0012070470020704710B5807801F0EEF8002800D0012010BD10B500F0A0FB0446AC20FDF71FFB010B02D02046CE
:40660000FFF7F2FE10BD000070B5054604464035A87F002823D1FF206075A0788821144A484380186030417F8823491CC9B24177A078584380186030052901D300214177B6
:40664000A0788821484380186030467F0677A1783046FEF741FC002802D00120A87770BD0220A877A078314600F0B2FC70BD0000200800200020401C0006000EFBD00020DE
:4066800070470000F0B515468207920F85B0C004C00E02926A469080002D01D0002400E0514C002C29D0084600F0BEFB03906846808800280BD00298012845D0022843D0C2
:4066C00003280CD03D20005D012872D086E00398FDF7B2FA01462046FFF79BF87EE00020029002A80AF034F8002807D03D20005D012876D12046FFF705FF72E06846029E8E
:406700008388324600210398FDF70CFA0398FDF793FA01462046FFF77CF8284600F0B0FA01AA21463046FEF775FE002806D030460AF07EF83D204C21085528E0F5773146FF
:40674000204601F0DBF94CE0002000902789684609F0EEFF002802D0002005B0F0BD6846009E8388321D00210398FDF7DBF90398FDF762FA01462046FFF74BF8284600F0F9
:406780007FFA25464035287E00280CD103E02046FFF7E0FA25E001AA21463046029BFEF76DFE002806D030460AF038F83D202873EDE710E00298FFF73BF8390A000101438D
:4067C0003770717068468088B070000AF0703046FFF706FD05E02046FFF794FE284600F04FFA0120B9E700004008002010B5044A917B002901D0491E9173FFF797FE10BDE3
:4068000020080020F8B5074606464037B87F00283DD0B0788821009048431F4945186035287F0099FEF76DFB012831D0287F401CC4B2052C00D300240020B877FF276F77DE
:406840002F77A87702460146009800F041FD717DFF2903D0304600F0C4FF777501F0DCFA00252F462246694630460097FEF79AFF0099002902D03046FEF75BFB641CE4B282
:40688000052C00D300246D1CEDB2052DEAD3F8BD0320B877F8BD00002008002010B502460021084B03E0002901D0002000E018460479944204D0491C0906090EF3D0002044
:4068C00010BD00004008002000B50120FFF7E6FF00BD10B5044601F097FD2189018080346168416061682831816002F0B7F910BDF7B50646087982B00C46092807D0A07889
:40690000F0770846FFF756FE012806D010E0304609F0A2FF022005B0F0BDA1788820284A484380186030007FFEF7D6FA012810D0A078FEF777FE01280BD0377801213046D5
:4069400001F017FA25462035062F36D00B2F0FD107E06846027C21463046FEF74DFF0D20D9E72046FEF760F9012801D1002028772046FFF7DFFA054604AA21463046FEF774
:40698000B2FD01205F2108556946087C0090A07833463A46294600F0C7FA69460A7CA0780323294600F06CFEA0782946FEF770F8304609F051FF0020ADE70120D7E70000C4
:4069C0002008002010B502464032937F0021002B03D1927E002A00D00121064AD279002A00D000210279092A00D10121807800F063FE10BDD008002070B50C460646FEF755
:406A000013F9002814D1012C0ED935464035A87800280DD1687802280AD03079092807D03046FFF7DBFD0446204600F080FD70BD0124F9E770B50D4601280BD0082808D166
:406A4000A8241146B020FDF7FDF829462046FDF7F9F870BD2020FAE710B501460820FDF7F1F810BD10B50446FF20F130012C01D1FF20D530002200F06AFE1020FDF7DCF870
:406A80000349A043088001461020FDF7DBF810BD8E02002010B504461020FDF7CDF80449A043088001461020FDF7CCF810BD00008E02002010B50446012802D0082C07D1F2
:406AC00002E0FF20D53001E0FF20F13000F034FE1020FDF7B1F804492043088001461020FDF7B0F810BD00008E02002010B504461020FDF7A1F8044920430880014610203D
:406B0000FDF7A0F810BD00008E020020F8B507460120B84085B214460E46012229467C2000F015FE32462946782000F010FE6078217800020143E078A57800020543607957
:406B40002679000206430C2047430D2080013C182046FDF777F8241D29462046FDF772F8201D3146FDF76EF8F8BD8B00034310B5D10191201943C000FDF764F810BD000021
:406B800070B505460C46407829780002014341200001FDF757F8E878A978000201430A48FDF750F860782178000201438320C000FDF748F8E078A1780002014302480830F3
:406BC000FDF740F870BD00001404000070B50D46044681B201208002FDF734F8210C0448FDF730F881202946C000FDF72BF870BD0404000070B5054600242846FDF71CF8B1
:406C0000641CA4B2102CF8D370BD10B50C460146B020FDF717F8FF2021462D30FDF712F810BD10B50C460146B020FDF70BF8204600F0B8FD0021FDF705F810BD70B50C46E5
:406C4000054600F005F821462846FFF7DEFF70BD10B50C460146B020FCF7F4FFFF2021462930FCF7EFFF10BD10B50146B020FCF7E9FFFF20002220211D3000F068FD10BDBE
:406C8000010210B54D310020FCF7DCFF10BD000010B504020029014608D0B020FCF7D2FF214675310020FCF7CDFF10BDB020FCF7C9FF512000214001FCF7C4FF00210348F3
:406CC000FCF7C0FF21467631ECE70000240A000010B554210020FCF7B5FF10BD10B553210020FCF7AFFF10BD10B5034908884880FFF7D0FE10BD00008E02002010B5024885
:406D00004088FFF7F3FE10BD8E02002010B5FDF77BF810BD10B552210020FCF793FF10BD10B504461820FCF787FF8004400F207010BD10B5B020FCF77FFFC0B210BDF8B5A2
:406D40000E4601461C461546B020FCF77BFFFF20E930FCF771FF0746FF200130FCF76CFF3080FF200930FCF767FF2880FF200530FCF762FF208079070698490F0170F8BDFB
:406D800010B5C820FCF758FF10BD10B50C46002812D05820FCF750FF2070000A60705C20FCF74AFFA070000AE0706020FCF744FF2071000A607110BDFF20C130FCF73CFF7B
:406DC0002070000A6070FF20C530FCF735FFA070000AE070FF20C930E8E770B504466820FCF72AFF06466C20FCF726FF05467020FCF722FF2670310A6170A570290AE17070
:406E00002071000A607170BD10B50446012905D01820FCF711FFC00B207010BD4820FCF70BFF8007C00FF7E70120C002704710B50C460146B020FCF705FF0321A0014902E0
:406E4000401810BD8821074B414310B5C918FF2260314A770A7700228A77114600F038FA10BD00002008002088225043074A10B58018FF21603041770177002181770448F3
:406E8000418EFF201D3000F057FC10BD20080020CC07002010B50C460146B020FCF7D2FEFF202530FCF7C8FE0222214600F002F810BD000010B50023884201D8081A03E05C
:406EC0000024E443201A4018044980B2884201D8824200D90123184610BD0000FF7F0000F8B503465078167800020643D07895780002054350791779000288240743002979
:406F000000D098241946B020FCF79CFE31462046FCF798FE201D2946FCF794FE204608303946FCF78FFEF8BDFFB581B014460D4606460A9FFFF77BFF3B460021049AFCF7F6
:406F400061FE02484019845505B0F0BD9202002070B506460D4611242520A40108214001FCF770FE2B46324600212046FCF74AFE70BD70B5212405466401FFF7AFFE1023AA
:406F80002A4600212046FCF73DFE70BD10B5044640782178000201438F20C000FCF752FEE078A178000201430148FCF74BFE10BD7C04000010B50C460146B020FCF742FE3D
:406FC000802021460143FF202930FCF73BFE10BD70B50D460146B020FCF734FEFF241D342046FCF729FE01090901FF202943013001432046FCF726FE70BDF8B50024264632
:40700000012807D0032802D0052808D105E002240A2604E004240C2601E004240D26492701463F013846FCF70DFE25204001FCF703FEC5B228462042F7D0252031464001A0
:40704000FCF700FE00213846FCF7FCFD2846F8BD70B50D46044601461646B020FCF7F2FD512029464001FCF7EDFD31460648FCF7E9FD032189030820FFF71CFD210275310E
:407080000020FCF7DFFD70BD240A000070B50D4604460146B020FCF7D5FDFF2029461930FCF7D0FD21024B310020FCF7CBFD70BD70B5491E8CB205460146B020FCF7C2FDCC
:4070C000FF2021461930FCF7BDFD29024C310020FCF7B8FD70BD0000054910B5884200D908460146FF206130FCF7ACFD10BD0000FF0F0000054910B5884200D908460146BA
:40710000FF206530FCF79EFD10BD0000FF0F000070B588251446002900D098250146B020FCF790FD2846FCF787FD2070000A6070281DFCF781FDA070000AE07028460830A4
:40714000FCF77AFD2071000A607170BD10B51446024611200B4680010021FCF73FFD012C01D1FFF7B5FD10BD10B504460920C001FCF762FD2070000A60700448FCF75CFD91
:40718000A070000AE070FFF7A3FD10BD840400000121814010B589B200227C2000F0D7FA10BD000070B5FF210120FFF75BFCFF210820FFF757FC3020FFF76CFC8021002098
:4071C000FCF740FD002211460320FCF75DFD374DFF20A98DD530FCF735FD0024FF26F1362146B020FCF72EFD298F3046FCF72AFD2046FFF739FE641C2406240EF0D0FF2018
:40720000A98FF930FCF71EFD28481030044600F073F9204600F0B8F900F04CF8234CB82040346188FCF70EFDA188BC20FCF70AFDE188C420FCF706FDFF20698EE130FCF750
